:020000040800F2
:1000000000500020D9500008C14E0008C74E00081B
:10001000CD4E0008D34E0008D94E00080000000065
:10002000000000000000000000000000DF4E00089B
:10003000EB4E000800000000F74E0008034F0008D8
:1000400021510008215100082151000821510008C8
:1000500021510008215100082151000821510008B8
:1000600021510008215100082151000821510008A8
:100070002151000821510008215100082151000898
:100080002151000821510008215100082151000888
:100090002151000821510008215100082151000878
:1000A00021510008114F000821510008215100087A
:1000B0002151000821510008215100082151000858
:1000C0002151000821510008215100082151000848
:1000D00021510008254F000821510008394F000820
:1000E00021510008215100082151000800000000A2
:1000F0000000000000000000000000000000000000
:0C01000000000000000000005FF808F1A3
:1001100010B5054C237833B9044B13B10448AFF341
:1001200000800123237010BDE801002000000000C2
:10013000D8FC000808B5034B1BB103490348AFF3D3
:10014000008008BD00000000EC010020D8FC000881
:10015000034613F8012B002AFBD1181A0138704707
:1001600081F0004102E000BF83F0004330B54FEA68
:1001700041044FEA430594EA050F08BF90EA020FD5
:100180001FBF54EA000C55EA020C7FEA645C7FEA68
:10019000655C00F0E2804FEA5454D4EB5555B8BF8B
:1001A0006D420CDD2C4480EA020281EA030382EAFC
:1001B000000083EA010180EA020281EA0303362D8E
:1001C00088BF30BD11F0004F4FEA01314FF4801C61
:1001D0004CEA113102D0404261EB410113F0004F73
:1001E0004FEA03334CEA133302D0524263EB43032A
:1001F00094EA050F00F0A780A4F10104D5F1200EC8
:100200000DDB02FA0EFC22FA05F2801841F1000122
:1002100003FA0EF2801843FA05F359410EE0A5F1F6
:1002200020050EF1200E012A03FA0EFC28BF4CF027
:10023000020C43FA05F3C01851EBE37101F00045DD
:1002400007D54FF0000EDCF1000C7EEB00006EEBEA
:100250000101B1F5801F1BD3B1F5001F0CD3490874
:100260005FEA30004FEA3C0C04F101044FEA4452CB
:1002700012F5800F80F09A80BCF1004F08BF5FEA52
:10028000500C50F1000041EB045141EA050130BD32
:100290005FEA4C0C404141EB0101013C28BFB1F544
:1002A000801FE9D291F0000F04BF01460020B1FA8F
:1002B00081F308BF2033A3F10B03B3F120020CDA62
:1002C0000C3208DD02F1140CC2F10C0201FA0CF040
:1002D00021FA02F10CE002F11402D8BFC2F1200CA5
:1002E00001FA02F120FA0CFCDCBF41EA0C0190405B
:1002F000E41AA2BF01EB0451294330BD6FEA0404A4
:100300001F3C1CDA0C340EDC04F11404C4F120028E
:1003100020FA04F001FA02F340EA030021FA04F3A0
:1003200045EA030130BDC4F10C04C4F1200220FAF7
:1003300002F001FA04F340EA0300294630BD21FA35
:1003400004F0294630BD94F0000F83F4801306BFFB
:1003500081F480110134013D4EE77FEA645C18BFEF
:100360007FEA655C29D094EA050F08BF90EA020F86
:1003700005D054EA000C04BF1946104630BD91EA7E
:10038000030F1EBF0021002030BD5FEA545C05D181
:100390004000494128BF41F0004130BD14F58004C0
:1003A0003CBF01F5801130BD01F0004545F0FE4134
:1003B00041F470014FF0000030BD7FEA645C1ABF69
:1003C000194610467FEA655C1CBF0B46024650EAA0
:1003D000013406BF52EA033591EA030F41F40021CC
:1003E00030BD00BF90F0000F04BF0021704730B552
:1003F0004FF4806404F132044FF000054FF0000127
:1004000050E700BF90F0000F04BF0021704730B5E7
:100410004FF4806404F1320410F0004548BF4042BC
:100420004FF000013EE700BF42004FEAE2014FEA11
:1004300031014FEA02701FBF12F07F4393F07F4FEC
:1004400081F06051704732F07F4208BF704793F0EF
:100450007F4F04BF41F40021704730B54FF4607402
:1004600001F0004521F000411CE700BF50EA010205
:1004700008BF704730B54FF000050AE050EA0102AE
:1004800008BF704730B511F0004502D5404261EB1E
:1004900041014FF4806404F132045FEA915C3FF45F
:1004A000D8AE4FF003025FEADC0C18BF03325FEAFC
:1004B000DC0C18BF033202EBDC02C2F1200300FAAD
:1004C00003FC20FA02F001FA03FE40EA0E0021FAD2
:1004D00002F11444BDE600BF70B54FF0FF0C4CF4C0
:1004E000E06C1CEA11541DBF1CEA135594EA0C0F72
:1004F00095EA0C0F00F0DEF82C4481EA030621EAAD
:100500004C5123EA4C5350EA013518BF52EA0335E7
:1005100041F4801143F4801338D0A0FB02CE4FF099
:100520000005E1FB02E506F00042E0FB03E54FF0C9
:100530000006E1FB03569CF0000F18BF4EF0010EC1
:10054000A4F1FF04B6F5007F64F5407404D25FEABD
:100550004E0E6D4146EB060642EAC62141EA555170
:100560004FEAC52040EA5E504FEACE2EB4F1FD0CB2
:1005700088BFBCF5E06F1ED8BEF1004F08BF5FEA30
:10058000500E50F1000041EB045170BD06F00046E2
:1005900046EA010140EA020081EA0301B4EB5C048F
:1005A000C2BFD4EB0C0541EA045170BD41F4801187
:1005B0004FF0000E013C00F3AB8014F1360FDEBFAC
:1005C000002001F0004170BDC4F10004203C35DA88
:1005D0000C341BDC04F11404C4F1200500FA05F30B
:1005E00020FA04F001FA05F240EA020001F00042AC
:1005F00021F0004110EBD37021FA04F642EB060122
:100600005EEA430E08BF20EAD37070BDC4F10C044B
:10061000C4F1200500FA04F320FA05F001FA04F20F
:1006200040EA020001F0004110EBD37041F10001FB
:100630005EEA430E08BF20EAD37070BDC4F1200506
:1006400000FA05F24EEA020E20FA04F301FA05F26E
:1006500043EA020321FA04F001F0004121FA04F216
:1006600020EA020000EBD3705EEA430E08BF20EAE6
:10067000D37070BD94F0000F0FD101F00046400020
:1006800041EB010111F4801F08BF013CF7D041EAA2
:10069000060195F0000F18BF704703F000465200A6
:1006A00043EB030313F4801F08BF013DF7D043EA77
:1006B0000603704794EA0C0F0CEA135518BF95EA2D
:1006C0000C0F0CD050EA410618BF52EA4306D1D1B4
:1006D00081EA030101F000414FF0000070BD50EAD3
:1006E000410606BF1046194652EA430619D094EA5D
:1006F0000C0F02D150EA013613D195EA0C0F05D147
:1007000052EA03361CBF104619460AD181EA03019A
:1007100001F0004141F0FE4141F470014FF0000052
:1007200070BD41F0FE4141F4780170BD70B54FF0ED
:10073000FF0C4CF4E06C1CEA11541DBF1CEA13556D
:1007400094EA0C0F95EA0C0F00F0A7F8A4EB05044F
:1007500081EA030E52EA03354FEA013100F0888046
:100760004FEA03334FF0805545EA131343EA12630F
:100770004FEA022245EA111545EA10654FEA0026C4
:100780000EF000419D4208BF964244F1FD0404F57D
:10079000407402D25B084FEA3202B61A65EB0305D9
:1007A0005B084FEA32024FF480104FF4002CB6EB96
:1007B000020E75EB030E22BFB61A754640EA0C0016
:1007C0005B084FEA3202B6EB020E75EB030E22BF56
:1007D000B61A754640EA5C005B084FEA3202B6EB97
:1007E000020E75EB030E22BFB61A754640EA9C0056
:1007F0005B084FEA3202B6EB020E75EB030E22BF26
:10080000B61A754640EADC0055EA060E18D04FEAE3
:10081000051545EA16754FEA06164FEAC30343EA83
:1008200052734FEAC2025FEA1C1CC0D111F4801F50
:100830000BD141EA00014FF000004FF0004CB6E749
:1008400011F4801F04BF01430020B4F1FD0C88BFE8
:10085000BCF5E06F3FF6AFAEB5EB030C04BFB6EBF3
:10086000020C5FEA500C50F1000041EB045170BDE6
:100870000EF0004E4EEA113114EB5C04C2BFD4EB13
:100880000C0541EA045170BD41F480114FF0000E97
:10089000013C90E645EA060E8DE60CEA135594EA13
:1008A0000C0F08BF95EA0C0F3FF43BAF94EA0C0F16
:1008B0000AD150EA01347FF434AF95EA0C0F7FF48B
:1008C00025AF104619462CE795EA0C0F06D152EADF
:1008D00003353FF4FDAE1046194622E750EA4106C3
:1008E00018BF52EA43067FF4C5AE50EA41047FF4D4
:1008F0000DAF52EA43057FF4EBAE12E74FF0FF3C39
:1009000006E000BF4FF0010C02E000BF4FF0010C09
:100910004DF804CD4FEA410C7FEA6C5C4FEA430C82
:1009200018BF7FEA6C5C1BD001B050EA410C0CBFD1
:1009300052EA430C91EA030F02BF90EA020F002033
:10094000704710F1000F91EA030F58BF994208BF9A
:1009500090422CBFD8176FEAE37040F00100704757
:100960004FEA410C7FEA6C5C02D150EA013C07D1AE
:100970004FEA430C7FEA6C5CD6D152EA033CD3D0F9
:100980005DF8040B704700BF8446104662468C46F3
:100990001946634600E000BF01B5FFF7B7FF002826
:1009A00048BF10F1000F01BD4DF808EDFFF7F4FF4F
:1009B0000CBF012000205DF808FB00BF4DF808EDDA
:1009C000FFF7EAFF34BF012000205DF808FB00BFFD
:1009D0004DF808EDFFF7E0FF94BF012000205DF81F
:1009E00008FB00BF4DF808EDFFF7CEFF94BF0120D4
:1009F00000205DF808FB00BF4DF808EDFFF7C4FFCD
:100A000034BF012000205DF808FB00BF4FEA410C15
:100A10007FEA6C5C02D150EA013C0AD14FEA430CF8
:100A20007FEA6C5C02D152EA033C02D14FF0000035
:100A300070474FF0010070474FEA410212F5001273
:100A400015D211D56FF47873B3EB625212D94FEA15
:100A5000C12343F0004343EA505311F0004F23FAFF
:100A600002F018BF404270474FF00000704750EA54
:100A7000013005D111F0004008BF6FF00040704711
:100A80004FF00000704700BF4A0011D212F500126B
:100A900011D20DD56FF47873B3EB62520ED44FEAD6
:100AA000C12343F0004343EA505323FA02F0704756
:100AB0004FF00000704750EA013002D14FF0FF3094
:100AC00070474FF0000070474FEA4102B2F1E04337
:100AD00024BFB3F5001CDCF1FE5C0DD901F0004C25
:100AE0004FEAC0024CEA5070B2F1004F40EB830075
:100AF00008BF20F00100704711F0804F21D113F1A1
:100B00003872BCBF01F00040704741F480114FEAD9
:100B10005252C2F11802C2F1200C10FA0CF320FA62
:100B200002F018BF40F001004FEAC1234FEAD3237F
:100B300003FA0CFC40EA0C0023FA02F34FEA4303E9
:100B4000CCE77FEA625307D150EA01331EBF4FF072
:100B5000FE4040F44000704701F0004040F0FE408D
:100B600040F40000704700BF80F0004002E000BF8A
:100B700081F0004142001FBF5FEA410392EA030F88
:100B80007FEA226C7FEA236C6AD04FEA1262D2EBD2
:100B90001363C1BFD218414048404140B8BF5B42D7
:100BA000192B88BF704710F0004F40F4000020F070
:100BB0007F4018BF404211F0004F41F4000121F086
:100BC0007F4118BF494292EA030F3FD0A2F10102D0
:100BD00041FA03FC10EB0C00C3F1200301FA03F10E
:100BE00000F0004302D5494260EB4000B0F5000F31
:100BF00013D3B0F1807F06D340084FEA310102F1F0
:100C00000102FE2A51D2B1F1004F40EBC25008BFA1
:100C100020F0010040EA03007047490040EB00006B
:100C2000013A28BFB0F5000FEDD2B0FA80FCACF16C
:100C3000080CB2EB0C0200FA0CF0AABF00EBC25099
:100C400052421843BCBFD0401843704792F0000F87
:100C500081F4000106BF80F400000132013BB5E7DA
:100C60004FEA41037FEA226C18BF7FEA236C21D050
:100C700092EA030F04D092F0000F08BF08467047B5
:100C800090EA010F1CBF0020704712F07F4F04D183
:100C9000400028BF40F00040704712F100723CBF96
:100CA00000F50000704700F0004343F0FE4040F4C0
:100CB000000070477FEA226216BF08467FEA23637E
:100CC0000146420206BF5FEA412390EA010F40F469
:100CD000800070474FF0000304E000BF10F00043B5
:100CE00048BF40425FEA000C08BF704743F096439C
:100CF00001464FF000001CE050EA010208BF7047B7
:100D00004FF000030AE000BF50EA010208BF70473D
:100D100011F0004302D5404261EB41015FEA010C52
:100D200002BF84460146002043F0B64308BFA3F14A
:100D30008053A3F50003BCFA8CF2083AA3EBC2532C
:100D400010DB01FA02FC634400FA02FCC2F120024B
:100D5000BCF1004F20FA02F243EB020008BF20F082
:100D60000100704702F1200201FA02FCC2F12002E8
:100D700050EA4C0021FA02F243EB020008BF20EADD
:100D8000DC7070474FF0FF0C1CEAD0521EBF1CEA0B
:100D9000D15392EA0C0F93EA0C0F6FD01A4480EAF9
:100DA000010C400218BF5FEA41211ED04FF00063E2
:100DB00043EA501043EA5111A0FB01310CF000400E
:100DC000B1F5000F3EBF490041EAD3715B0040EA34
:100DD000010062F17F02FD2A1DD8B3F1004F40EB04
:100DE000C25008BF20F00100704790F0000F0CF0D7
:100DF000004C08BF49024CEA502040EA51207F3A9B
:100E0000C2BFD2F1FF0340EAC250704740F4000075
:100E10004FF00003013A5DDC12F1190FDCBF00F066
:100E200000407047C2F10002410021FA02F1C2F114
:100E3000200200FA02FC5FEA310040F1000053EAB0
:100E40004C0308BF20EADC70704792F0000F00F0FE
:100E5000004C02BF400010F4000F013AF9D040EA04
:100E60000C0093F0000F01F0004C02BF490011F498
:100E7000000F013BF9D041EA0C018FE70CEAD15396
:100E800092EA0C0F18BF93EA0C0F0AD030F0004C16
:100E900018BF31F0004CD8D180EA010000F00040CA
:100EA000704790F0000F17BF90F0004F084691F088
:100EB000000F91F0004F14D092EA0C0F01D14202C2
:100EC0000FD193EA0C0F03D14B0218BF084608D18B
:100ED00080EA010000F0004040F0FE4040F40000D5
:100EE000704740F0FE4040F4400070474FF0FF0C68
:100EF0001CEAD0521EBF1CEAD15392EA0C0F93EAAF
:100F00000C0F69D0A2EB030280EA010C49024FEA00
:100F1000402037D04FF0805343EA111143EA1013B9
:100F20000CF000408B4238BF5B0042F17D024FF471
:100F3000000C8B4224BF5B1A40EA0C00B3EB510F4C
:100F400024BFA3EB510340EA5C00B3EB910F24BF35
:100F5000A3EB910340EA9C00B3EBD10F24BFA3EBBA
:100F6000D10340EADC001B0118BF5FEA1C1CE0D182
:100F7000FD2A3FF650AF8B4240EBC25008BF20F035
:100F8000010070470CF0004C4CEA50207F32C2BF89
:100F9000D2F1FF0340EAC250704740F400004FF026
:100FA0000003013A37E792F0000F00F0004C02BF57
:100FB000400010F4000F013AF9D040EA0C0093F021
:100FC000000F01F0004C02BF490011F4000F013B7B
:100FD000F9D041EA0C0195E70CEAD15392EA0C0FE3
:100FE00008D142027FF47DAF93EA0C0F7FF470AF1B
:100FF000084676E793EA0C0F04D14B023FF44CAF5E
:1010000008466EE730F0004C18BF31F0004CCAD1F2
:1010100030F000427FF45CAF31F000437FF43CAF2E
:101020005FE700BF4FF0FF3C06E000BF4FF0010C50
:1010300002E000BF4FF0010C4DF804CD4FEA400232
:101040004FEA41037FEA226C18BF7FEA236C11D07C
:1010500001B052EA530C18BF90EA010F58BFB2EB2F
:10106000030088BFC81738BF6FEAE17018BF40F0AF
:10107000010070477FEA226C02D15FEA402C05D163
:101080007FEA236CE4D15FEA412CE1D05DF8040BE8
:10109000704700BF844608466146FFE70FB5FFF77B
:1010A000C9FF002848BF10F1000F0FBD4DF808ED33
:1010B000FFF7F4FF0CBF012000205DF808FB00BF24
:1010C0004DF808EDFFF7EAFF34BF012000205DF87E
:1010D00008FB00BF4DF808EDFFF7E0FF94BF0120CB
:1010E00000205DF808FB00BF4DF808EDFFF7D2FFC8
:1010F00094BF012000205DF808FB00BF4DF808ED0B
:10110000FFF7C8FF34BF012000205DF808FB00BFD7
:101110004FEA40024FEA41037FEA226C02D15FEAC4
:10112000402C08D17FEA236C02D15FEA412C02D126
:101130004FF0000070474FF0010070474FEA400247
:10114000B2F1FE4F0FD34FF09E03B3EB12620DD9F5
:101150004FEA002343F0004310F0004F23FA02F05F
:1011600018BF404270474FF00000704712F1610F06
:1011700001D1420205D110F0004008BF6FF00040DD
:1011800070474FF00000704742000ED2B2F1FE4FA0
:101190000BD34FF09E03B3EB126209D44FEA002346
:1011A00043F0004323FA02F070474FF0000070470D
:1011B00012F1610F01D1420202D14FF0FF307047AE
:1011C0004FF00000704700BF38B50C460546214679
:1011D000284600220023FFF7F1FB28B928462146C4
:1011E000BDE8384000F00AB8284604F1004100F09C
:1011F00005F8404261EB410138BD00BFD0B5002287
:101200000B4B06460F46FFF767F9FFF73DFC044618
:10121000FFF7E8F80022074BFFF75EF902460B469E
:1012200030463946FEF7A0FFFFF72EFC2146D0BD21
:101230000000F03D0000F0410FB480B582B000AF77
:1012400007F114033B603B683A6964210A4809F0DE
:1012500005FB094800F014F878607B689AB24FF4F7
:101260007A730549054806F0B1FC00BF0837BD4652
:10127000BDE8804004B07047040200203004002024
:1012800080B485B000AF78600023FB6002E0FB68AB
:101290000133FB607B685A1C7A601B78002BF6D107
:1012A000FB6818461437BD4680BC7047000000003C
:1012B00084B0B0B592B000AF07F1580484E80F00D5
:1012C000D7F88C301846FFF7AFF879A3D3E900239D
:1012D000FFF702F902460B4610461946FFF7F4FBEA
:1012E000034618460CF00AF97864D7F88C30184693
:1012F000FFF79AF86EA3D3E90023FFF7EDF8024653
:101300000B4610461946FFF7DFFB034618460CF064
:10131000BDF83864D7F890301846FFF785F864A315
:10132000D3E90023FFF7D8F802460B4610461946CA
:10133000FFF7CAFB034618460CF0E0F8F863D7F84D
:1013400090301846FFF770F859A3D3E90023FFF750
:10135000C3F802460B4610461946FFF7B5FB034695
:1013600018460CF093F8B8637C6EBB6E796C184627
:10137000FFF708FD03461D46FB6E396C1846FFF764
:1013800001FD034619462846FFF7F4FB0346F96BB7
:101390001846FFF7F7FC034619462046FFF7EAFB1D
:1013A00003467B63BB6E396C1846FFF7EBFC0346C4
:1013B0001C46FB6E796C1846FFF7E4FC03461946A1
:1013C0002046FFF7D5FB03463B63BB6E796C18469E
:1013D000FFF7D8FC03461C46FB6E396C1846FFF736
:1013E000D1FC034619462046FFF7C4FB0346B96B00
:1013F0001846FFF77BFD0346FB627B6BBB623B6BD2
:101400007B62FB6A3B62B86AFFF70EF802460B4646
:101410002948FFF711FF786AFFF706F802460B46E6
:101420002648FFF709FF386AFEF7FEFF02460B4623
:101430002348FFF701FFB96A4FF07C50FFF798FB94
:1014400003461A461F4B1A60796A4FF07C50FFF72B
:101450008FFB03461A461B4B5A60396A4FF07C508B
:10146000FFF786FB03461A46164B9A60154B1B681E
:1014700023F0004314491846FFF740FE0346002BB3
:1014800024D1104B5B6823F000430F491846FFF747
:1014900035FE0346002B19D10A4B9B6823F000430D
:1014A00009491846FFF72AFE0346002B0ED1EBE050
:1014B00011E226A246DF913F4CFD00085CFD0008CA
:1014C0006CFD000880020020CDCC4C3E3B6FFB61E0
:1014D0007B6FBB61BB6F7B61F869FEF7A5FF0246BE
:1014E0000B467148FFF7A8FEB869FEF79DFF02465C
:1014F0000B466E48FFF7A0FE7869FEF795FF02469F
:101500000B466B48FFF798FEF969386AFFF73AFC1B
:1015100003461C467969B86AFFF734FC034619464E
:101520002046FFF725FB03463B61B969B86AFFF720
:1015300029FC03461C46F969786AFFF723FC034639
:1015400019462046FFF714FB0346FB605948FFF796
:1015500073FE59493869FFF715FC0346BB605649CD
:10156000F868FFF70FFC03467B60B868FEF75CFF86
:1015700002460B465148FFF75FFE7868FEF754FFBE
:1015800002460B464E48FFF757FE43A3D3E900231C
:101590004C48FFF751FE42A3D3E900234A48FFF726
:1015A0004BFE4A4BBB604949B868FFF79FFC0346B6
:1015B00047491846FFF7E6FB03461A46454B1A60B3
:1015C00042497868FFF792FC034641491846FFF705
:1015D000D9FB03461A46404B1A604048FFF72CFEE1
:1015E0003C4B1B681846FEF71FFF02460B463C4863
:1015F000FFF722FE384B1B681846FEF715FF024620
:101600000B463848FFF718FE3748FFF715FE3748F6
:1016100005F05CFB4FF00001B868FFF751FD034691
:10162000002B0BD02B4B1B6823F000431846FFF711
:10163000ABFD0346184600F08BF808E0254B1B680D
:101640001846FFF77BFD0346184600F069F84FF097
:1016500000017868FFF734FD0346002B0BD01E4BCA
:101660001B6823F000431846FFF78EFD034618461B
:1016700000F09EF808E0184B1B681846FFF75EFD67
:101680000346184600F07CF800BF4837BD46BDE869
:10169000B04004B0704700BF000000A09999C93F56
:1016A000000000000020DC407CFD00088CFD0008EC
:1016B0009CFD0008ACFD0008CDCCCCBDC8FD0008E9
:1016C000DCFD0008F0FD00080CFE0008CDCC4C3E0F
:1016D0000000E1468C0200209C02002028FE000849
:1016E00040FE000850FE000860FE0008BC04002018
:1016F00080B500AF01220821024804F0DDF800BFE8
:1017000080BD00BF000C014080B500AF0022082161
:10171000024804F0D1F800BF80BD00BF000C0140BA
:1017200080B582B000AF7860074A7B685363064B90
:1017300000229A63FFF7DCFF0021044805F096FBC6
:1017400000BF0837BD4680BD00040040D80300201C
:1017500080B582B000AF7860074B00225A63064A1A
:101760007B689363FFF7C4FF0421044805F07EFB08
:1017700000BF0837BD4680BD00040040D8030020EC
:1017800080B582B000AF7860074B0022DA63064A6A
:101790007B681364FFF7ACFF0C21044805F066FB7F
:1017A00000BF0837BD4680BD00080040140300207C
:1017B00080B582B000AF7860074A7B68D363064B80
:1017C00000221A64FFF794FF0821044805F04EFB3D
:1017D00000BF0837BD4680BD00080040140300204C
:1017E00080B485B000AFF860B9607A603B60FB6898
:1017F0004FF000021A60FB684FF000025A60BB68AD
:101800001A68FB689A60FB684FF00002DA60FB68B8
:101810004FF000021A61BB685A68FB685A617B6826
:101820001A68FB689A617B685A68FB68DA613B68F2
:101830001A68FB681A623B685A68FB685A623B6820
:101840009A68FB689A6200BF1437BD4680BC704737
:1018500090B593B000AFF860B9607A603B60FB6808
:101860001B6818460BF04AFE7864FB681B68184634
:101870000BF00CFE3864FB685B6818460BF074FED6
:10188000F863796C7868FFF77DFA03461C46396C7B
:101890003868FFF777FA034619462046FFF76AF9DA
:1018A0000346F96B1846FFF76DFA03461946B86808
:1018B000FFF760F90346BB63396C7868FFF762FA9B
:1018C00003461C46796C3868FFF75CFA03461946F4
:1018D0002046FFF74DF903467B63FB681C68B96B34
:1018E000B86DFFF74FFA034619462046FFF742F955
:1018F00003461A46FB681A60FB685C68796BB86D32
:10190000FFF740FA034619462046FFF733F903462E
:101910001A46FB685A60FB681B6818460BF0EEFD20
:101920007864FB681B6818460BF0B0FD3864FB68F0
:101930005B6818460BF018FEF863FB685B68184696
:101940000BF0A4FD034619464FF07E50FFF7CEFA88
:1019500003463B63396C7868FFF714FA03461C466C
:10196000796C3868FFF70EFA034619462046FFF7F0
:10197000FFF80346F96B1846FFF704FA03463B628B
:10198000796C7868FFF7FEF903461C46396C3868B5
:10199000FFF7F8F9034619462046FFF7EBF8034630
:1019A000396B1846FFF7EEF90346396B1846FFF717
:1019B000E9F903467B62796C7868FFF7E3F903463F
:1019C0001C46396C3868FFF7DDF903461946204696
:1019D000FFF7D0F8034683F00043BB624FF00003EB
:1019E000FB623A6AFB689B6819461046FFF7CAF922
:1019F00003461C467A6AFB681B6919461046FFF7C6
:101A0000C1F9034619462046FFF7B4F803461C46C1
:101A1000FB689B683A6A11461846FFF7B3F903461C
:101A200019462046FFF7A6F803461C46FB68DB680C
:101A3000BA6A11461846FFF7A5F90346194620462B
:101A4000FFF798F803461A46FB689B69194610464B
:101A5000FFF790F803463B613A6AFB68DB6819467A
:101A60001046FFF78FF903461C467A6AFB685B69EC
:101A700019461046FFF786F9034619462046FFF738
:101A800079F803461C46FB689B687A6A114618463B
:101A9000FFF778F9034619462046FFF76BF803462F
:101AA0007B61BA6AFB689B6819461046FFF76AF9C2
:101AB00003461C46FB681B693A6A11461846FFF745
:101AC00061F9034619462046FFF754F803461C46C1
:101AD000FB685B69BA6A11461846FFF753F903467B
:101AE00019462046FFF746F80346BB61BA6AFB6811
:101AF000DB6819461046FFF745F903461C46FB68AC
:101B00001B697A6A11461846FFF73CF903461946E5
:101B10002046FFF72FF803461A46FB68DB69194693
:101B20001046FFF727F80346FB61FB689C683B699A
:101B3000B96D1846FFF726F9034619462046FFF708
:101B400019F803461A46FB689A60FB68DC687B69F3
:101B5000B96D1846FFF716F9034619462046FFF7F8
:101B600009F803461A46FB68DA60FB681C69BB6922
:101B7000B96D1846FFF706F9034619462046FEF7E9
:101B8000F9FF03461A46FB681A61FB685C69FB694A
:101B9000B96D1846FFF7F6F8034619462046FEF7DA
:101BA000E9FF03461A46FB685A6100BF4C37BD4641
:101BB00090BDF0B5C5B000AF07F10C04206007F18F
:101BC00008000160391D0A603A46136007F10803F6
:101BD00019681868FFF7D6F803461C463B1D1968BC
:101BE0001868FFF7CFF8034619462046FEF7C2FFF4
:101BF00003461C463B4619681868FFF7C3F80346BE
:101C000019462046FEF7B6FF034618460BF022FDA4
:101C1000034619464FF07E50FFF768F90346C7F8B0
:101C2000043107F10803D7F804111868FFF7AAF880
:101C30000346C7F800313B1DD7F804111868FFF7B9
:101C4000A1F80346C7F8FC303B46D7F804111868E2
:101C5000FFF798F80346C7F8F83007F10C031B6844
:101C60001B6818460BF04AFCC7F8F40007F10C0398
:101C70001B681B6818460BF009FCC7F8F00007F159
:101C80000C031B685B6818460BF038FCC7F8EC00C7
:101C900007F10C031B685B6818460BF0F7FBC7F8ED
:101CA000E8004FF00003C7F8CC30D7F8E830C7F8A9
:101CB000D030D7F8F03083F00043D7F8E81018465A
:101CC000FFF760F80346C7F8D430D7F8EC10D7F820
:101CD000F400FFF757F80346C7F8D830D7F8E810F4
:101CE000D7F8F400FFF74EF80346C7F8DC30D7F812
:101CF000EC10D7F8F000FFF745F80346C7F8E030DE
:101D000007F10C031B68DB68D7F8D0201146184692
:101D1000FFF738F80346C7F8B43007F10C031B6827
:101D20009B68D7F8D42011461846FFF72BF80346D6
:101D30001C4607F10C031B68DB68D7F8D820114656
:101D40001846FFF71FF8034619462046FEF712FF14
:101D50000346C7F8B83007F10C031B689B68D7F837
:101D6000DC2011461846FFF70DF803461C4607F124
:101D70000C031B68DB68D7F8E02011461846FFF714
:101D800001F8034619462046FEF7F4FE0346C7F85D
:101D9000BC3007F10C031B685B69D7F8D0201146F3
:101DA0001846FEF7EFFF0346C7F8C03007F10C03F3
:101DB0001B681B69D7F8D42011461846FEF7E2FFCE
:101DC00003461C4607F10C031B685B69D7F8D82053
:101DD00011461846FEF7D6FF034619462046FEF781
:101DE000C9FE0346C7F8C43007F10C031B681B6922
:101DF000D7F8DC2011461846FEF7C4FF03461C4600
:101E000007F10C031B685B69D7F8E0201146184600
:101E1000FEF7B8FF034619462046FEF7ABFE034621
:101E2000C7F8C830D7F8D030D7F8C02011461846C8
:101E3000FEF7A8FF03461A4607F10C031B681B6A4E
:101E400019461046FEF796FE0346C7F89030D7F8BD
:101E5000D030D7F8C42011461846FEF793FF03464A
:101E6000C7F89430D7F8D030D7F8C82011461846B4
:101E7000FEF788FF0346C7F89830D7F8D430D7F874
:101E8000B42011461846FEF77DFF03461C46D7F8DE
:101E9000D830D7F8C02011461846FEF773FF034626
:101EA00019462046FEF766FE0346C7F89C30D7F871
:101EB000D430D7F8B82011461846FEF763FF034622
:101EC0001C46D7F8D830D7F8C42011461846FEF77C
:101ED00059FF034619462046FEF74CFE03461A46B4
:101EE00007F10C031B685B6A19461046FEF742FEB9
:101EF0000346C7F8A030D7F8D430D7F8BC20114635
:101F00001846FEF73FFF03461C46D7F8D830D7F8EF
:101F1000C82011461846FEF735FF034619462046ED
:101F2000FEF728FE0346C7F8A430D7F8DC30D7F810
:101F3000B42011461846FEF725FF03461C46D7F885
:101F4000E030D7F8C02011461846FEF71BFF0346C5
:101F500019462046FEF70EFE0346C7F8A830D7F80C
:101F6000DC30D7F8B82011461846FEF70BFF0346C1
:101F70001C46D7F8E030D7F8C42011461846FEF7C3
:101F800001FF034619462046FEF7F4FD0346C7F855
:101F9000AC30D7F8DC30D7F8BC2011461846FEF735
:101FA000F1FE03461C46D7F8E030D7F8C8201146AA
:101FB0001846FEF7E7FE034619462046FEF7DAFD0F
:101FC00003461A4607F10C031B689B6A1946104624
:101FD000FEF7D0FD0346C7F8B030D7F89040D7F8E9
:101FE000B030D7F8A02011461846FEF7CBFE0346C6
:101FF0001D46D7F8AC30D7F8A42011461846FEF796
:10200000C1FE034619462846FEF7B2FD03461946AF
:102010002046FEF7B7FE03461D46D7F89C40D7F88A
:10202000B030D7F8942011461846FEF7ABFE0346B1
:102030001E46D7F8AC30D7F8982011461846FEF760
:10204000A1FE034619463046FEF792FD03461946A7
:102050002046FEF797FE034619462846FEF788FD00
:1020600003461D46D7F8A840D7F8A430D7F89420E7
:1020700011461846FEF786FE03461E46D7F8A030E6
:10208000D7F8982011461846FEF77CFE03461946FD
:102090003046FEF76DFD034619462046FEF772FEF8
:1020A000034619462846FEF765FD034619464FF0DC
:1020B0007E50FEF71BFF0346C7F8E430D7F8B03078
:1020C000D7F8A02011461846FEF75CFE03461C46D2
:1020D000D7F8AC30D7F8A42011461846FEF752FEC8
:1020E000034619462046FEF743FD0346FB66D7F834
:1020F000B030D7F8942011461846FEF743FE034649
:102100001C46D7F8AC30D7F8982011461846FEF791
:1021100039FE034619462046FEF72AFD034683F0A2
:1021200000433B67D7F8A430D7F8942011461846EF
:10213000FEF728FE03461C46D7F8A030D7F89820B3
:1021400011461846FEF71EFE034619462046FEF7C6
:102150000FFD03467B67D7F8B030D7F89C201146B7
:102160001846FEF70FFE03461C46D7F8A830D7F8EE
:10217000A42011461846FEF705FE034619462046E0
:10218000FEF7F6FC034683F00043BB67D7F8B03098
:10219000D7F8902011461846FEF7F4FD03461C467A
:1021A000D7F8A830D7F8982011461846FEF7EAFD70
:1021B000034619462046FEF7DBFC0346FB67D7F8CB
:1021C000A430D7F8902011461846FEF7DBFD0346F1
:1021D0001C46D7F89C30D7F8982011461846FEF7D1
:1021E000D1FD034619462046FEF7C2FC034683F0A4
:1021F0000043C7F88030D7F8AC30D7F89C201146A0
:102200001846FEF7BFFD03461C46D7F8A830D7F89E
:10221000A02011461846FEF7B5FD03461946204694
:10222000FEF7A6FC0346C7F88430D7F8AC30D7F8E1
:10223000902011461846FEF7A5FD03461C46D7F828
:10224000A830D7F8942011461846FEF79BFD0346A8
:1022500019462046FEF78CFC034683F00043C7F87E
:102260008830D7F8A030D7F8902011461846FEF7EE
:1022700089FD03461C46D7F89C30D7F894201146B8
:102280001846FEF77FFD034619462046FEF770FC10
:102290000346C7F88C300023C7F80C3134E0002324
:1022A000C7F8083127E0D7F80C2113465B00134428
:1022B000D7F8082113449B0007F58872134453F89C
:1022C000A43CD7F8E4101846FEF75CFD0346194617
:1022D000D7F80C2113465B001344D7F808211344A8
:1022E0009B0007F58872134443F8A41CD7F8083103
:1022F0000133C7F80831D7F80831022BD3D9D7F802
:102300000C310133C7F80C31D7F80C31022BC6D988
:10231000D7F8D430BA6F11461846FEF733FD03469E
:102320001C46D7F8DC30D7F8842011461846FEF753
:1023300029FD034619462046FEF71CFC03467B6533
:10234000D7F8D430FA6F11461846FEF71BFD034646
:102350001C46D7F8DC30D7F8882011461846FEF71F
:1023600011FD034619462046FEF704FC0346BB65F3
:10237000D7F8D430D7F8802011461846FEF702FD72
:1023800003461C46D7F8DC30D7F88C201146184697
:10239000FEF7F8FC034619462046FEF7EBFB034622
:1023A000FB65D7F8D030FA6E11461846FEF7EAFC06
:1023B00003461C46D7F8D830BA6F11461846FEF7C8
:1023C000E1FC034619462046FEF7D4FB03461C46B3
:1023D000D7F8E030D7F8842011461846FEF7D2FC33
:1023E000034619462046FEF7C5FB03463B66D7F871
:1023F000D0303A6F11461846FEF7C4FC03461C461F
:10240000D7F8D830FA6F11461846FEF7BBFC0346E2
:1024100019462046FEF7AEFB03461C46D7F8E030CF
:10242000D7F8882011461846FEF7ACFC034619463B
:102430002046FEF79FFB03467B66D7F8D0307A6FC5
:1024400011461846FEF79EFC03461C46D7F8D830C6
:10245000D7F8802011461846FEF794FC034619462B
:102460002046FEF787FB03461C46D7F8E030D7F836
:102470008C2011461846FEF785FC03461946204677
:10248000FEF778FB0346BB6607F10C031B689B68ED
:102490007A6D11461846FEF775FC03461C4607F197
:1024A0000C031B68DB683A6E11461846FEF76AFC9F
:1024B000034619462046FEF75DFB0346FB6307F122
:1024C0000C031B689B68BA6D11461846FEF75AFC50
:1024D00003461C4607F10C031B68DB687A6E114645
:1024E0001846FEF74FFC034619462046FEF742FB0E
:1024F00003463B6407F10C031B689B68FA6D1146A9
:102500001846FEF73FFC03461C4607F10C031B6808
:10251000DB68BA6E11461846FEF734FC03461946CE
:102520002046FEF727FB03467B6407F10C031B687C
:102530001B697A6D11461846FEF724FC03461C46BB
:1025400007F10C031B685B693A6E11461846FEF7EB
:1025500019FC034619462046FEF70CFB0346BB64F4
:1025600007F10C031B681B69BA6D11461846FEF78C
:1025700009FC03461C4607F10C031B685B697A6E75
:1025800011461846FEF7FEFB034619462046FEF7A5
:10259000F1FA0346FB6407F10C031B681B69FA6D33
:1025A00011461846FEF7EEFB03461C4607F10C03E6
:1025B0001B685B69BA6E11461846FEF7E3FB0346DB
:1025C00019462046FEF7D6FA03463B653B6CD7F822
:1025D000D42011461846FEF7D5FB03461C46BB6CBB
:1025E000D7F8DC2011461846FEF7CCFB0346194607
:1025F0002046FEF7BFFA034619464FF07E50FEF71D
:10260000B7FA0346FB623B6CD7F8D8201146184650
:10261000FEF7B8FB03461C46BB6CD7F8E02011461A
:102620001846FEF7AFFB034619462046FEF7A2FA0E
:10263000034683F000433B63FB6CD7F8D42011467C
:102640001846FEF79FFB03461C463B6DD7F8DC207F
:1026500011461846FEF796FB034619462046FEF73C
:1026600089FA034683F000437B63FB6CD7F8D820DC
:1026700011461846FEF786FB03461C463B6DD7F80D
:10268000E02011461846FEF77DFB0346194620461A
:10269000FEF770FA034619464FF07E50FEF768FACF
:1026A0000346BB63FA6A07F10C031B689B68194673
:1026B0001046FEF767FB03461C463A6B07F10C0316
:1026C0001B681B6919461046FEF75CFB034619465A
:1026D0002046FEF74FFA0346FB61FA6A07F10C0346
:1026E0001B68DB6819461046FEF74CFB03461C4688
:1026F0003A6B07F10C031B685B6919461046FEF73D
:1027000041FB034619462046FEF734FA03463B6276
:102710007A6B07F10C031B689B6819461046FEF79D
:1027200031FB03461C46BA6B07F10C031B681B699F
:1027300019461046FEF726FB034619462046FEF7CB
:1027400019FA03467B627A6B07F10C031B68DB689E
:1027500019461046FEF716FB03461C46BA6B07F1F6
:102760000C031B685B6919461046FEF70BFB03461A
:1027700019462046FEF7FEF90346BB62FA6907F1E7
:102780000C031B689A603A6A07F10C031B68DA6055
:102790007A6A07F10C031B681A61BA6A07F10C0325
:1027A0001B685A6107F10C031B685B6818460AF046
:1027B000A5FE024607F110031A6007F10C031B681F
:1027C0005B6818460AF062FE034683F0004407F196
:1027D0000C031B681B6818460AF090FE0346194656
:1027E0002046FEF7CFFA03461A4607F110035A6057
:1027F00007F10C031B685B6818460AF047FE0346A6
:1028000083F0004407F10C031B681B6818460AF0AC
:102810003DFE034619462046FEF7B4FA03461A4623
:1028200007F110039A60FC6B07F110031B6819464F
:10283000D7F80001FEF79CF9034619462046FEF73B
:10284000A1FA03461D463C6C07F110035B6819466C
:10285000D7F8FC00FEF78CF9034619462046FEF730
:1028600091FA034619462846FEF784F903461D46A9
:102870007C6C07F110039B681946D7F8F800FEF747
:1028800077F9034619462046FEF77CFA03461946B7
:102890002846FEF76FF903461A4607F10C031B683A
:1028A0001A60BC6C07F110031B681946D7F80001C9
:1028B000FEF75EF9034619462046FEF763FA034623
:1028C0001D46FC6C07F110035B681946D7F8FC0045
:1028D000FEF74EF9034619462046FEF753FA034623
:1028E00019462846FEF746F903461D463C6D07F19A
:1028F00010039B681946D7F8F800FEF739F903462C
:1029000019462046FEF73EFA034619462846FEF7CA
:1029100031F903461A4607F10C031B685A6000BFE1
:1029200007F58A77BD46F0BD80B582B000AF78600C
:102930006021134800F0BEFE0346012B18D1114858
:10294000FEF77AFC4FF4FA7002F04EFC786800F063
:10295000C5FA0346012B03D00B48FEF76DFC0AE0D5
:102960000A48FEF769FC4FF4FA7002F03DFC02E001
:102970000748FEF761FC00BF0837BD4680BD00BFB9
:102980006805002080FE0008A4FE0008C8FE0008BC
:10299000ECFE000880B500AF3B21484800F012FE75
:1029A00003461A46464B1A703C21444800F00AFE82
:1029B00003461A46424B5A703D21404800F002FE41
:1029C00003461A463E4B9A703E213C4800F0FAFD01
:1029D00003461A463A4BDA703F21384800F0F2FDC0
:1029E00003461A46364B1A714021344800F0EAFD7E
:1029F00003461A46324B5A714321304800F0E2FD3B
:102A000003461A462E4B9A7144212C4800F0DAFDF9
:102A100003461A462A4BDA714521284800F0D2FDB8
:102A200003461A46264B1A724621244800F0CAFD76
:102A300003461A46224B5A724721204800F0C2FD35
:102A400003461A461E4B9A7248211C4800F0BAFDF4
:102A500003461A461A4BDA722821184800F0D6FDB0
:102A600003461A46164B1A732921144800F0CEFD6E
:102A700003461A46124B5A732A21104800F0C6FD2D
:102A800003461A460E4B9A732B210C4800F0BEFDEC
:102A900003461A460A4BDA732C21084800F0B6FDAB
:102AA00003461A46064B1A742D21044800F0AEFD69
:102AB00003461A46024B5A7400BF80BD68050020C9
:102AC0007804002080B483B000AF786039607B6800
:102AD0005B69134A13607B689B69114A53607B688A
:102AE000DB690F4A93607B681B6A0D4AD3607B6881
:102AF0005B6A0B4A13617B689B6A094A53613B68B6
:102B00009B68074A93613B68DB68054AD3613B6871
:102B10001B69034A136200BF0C37BD4680BC704777
:102B20008C0400202DE9B043BAB006AF78600023D2
:102B3000C7F8CC3026E007F19C02D7F8CC301B0157
:102B40001344A14AA149184600F088FF07F16C021E
:102B5000D7F8CC301B0113449B4A9D49184600F01E
:102B60007DFF07F13C02D7F8CC301B011344964A95
:102B70004FF07E51184600F071FFD7F8CC3001338A
:102B8000C7F8CC30D7F8CC30022BD4DD914B1A6883
:102B900007F19C031146184600F09AFF8D4B5A68C6
:102BA00007F19C0310331146184600F091FF894B42
:102BB0009A6807F19C0320331146184600F088FFFD
:102BC000844BDA6807F16C031146184600F080FF69
:102BD000804B1A6907F16C0310331146184600F058
:102BE00077FF7C4B5A6907F16C0320331146184676
:102BF00000F06EFF774B9A6907F13C0311461846C7
:102C000000F066FF734BDA6907F13C03103311469D
:102C1000184600F05DFF6F4B1A6A07F13C03203342
:102C20001146184600F054FFD7F8A430BB60D7F81F
:102C3000B430FB60D7F8C4303B617B6F7B61D7F861
:102C40008430BB61D7F89430FB617B6C3B627B6D59
:102C50007B627B6EBB625F4B1B68BB605D4B5B68DE
:102C6000FB605C4B9B683B615A4BDB687B61594B5B
:102C70001B69BB61574B5B69FB61564B9B693B62B0
:102C8000544BDB697B62534B1B6ABB623B6A3A6AFB
:102C900011461846FEF776F803461C467B6A7A6AA8
:102CA00011461846FEF76EF8034619462046FDF712
:102CB00061FF03461C46BB6ABA6A11461846FEF716
:102CC00061F8034619462046FDF754FF03461846AF
:102CD000FDF7AAFB02460B46104619460AF068FCAF
:102CE00002460B46C7E90C233B48FEF7A5FA3B48D2
:102CF000FEF7A2FABB681846FDF796FB80468946A8
:102D0000FB681846FDF790FB04460D463B691846E4
:102D1000FDF78AFB02460B46CDE90223CDE90045CB
:102D200042464B462E48FEF787FA2E48FEF784FAB5
:102D30007B691846FDF778FB80468946BB691846D3
:102D4000FDF772FB04460D46FB691846FDF76CFB68
:102D500002460B46CDE90223CDE9004542464B46EB
:102D60002148FEF769FA2148FEF766FA3B6A1846E1
:102D7000FDF75AFB804689467B6A1846FDF754FBEF
:102D800004460D46BB6A1846FDF74EFBD7E90C23F7
:102D9000CDE90423CDE90201CDE9004542464B4689
:102DA0001348FEF749FA7B681D4607F108040FCC6B
:102DB0000FC50FCC0FC594E80F0085E80F007868A9
:102DC000D037BD46BDE8B0830AD7233C0000A04001
:102DD0000000C8418C04002010FF000838FF0008E4
:102DE00048FF00086CFF00087CFF00089CFF0008FB
:102DF000A8FF000880B584B000AFF860B9607A60C1
:102E0000FFF7C8FDB86800F05DFA786800F07CFC58
:102E10007968B868FFF756FEFB681846FFF782FE30
:102E2000F8681037BD4680BD80B582B000AFFB1D8D
:102E30001A460121752000F005F8FB79184608377D
:102E4000BD4680BD80B582B000AF03463A60FB71DD
:102E50000B46BB71B979FB793A68184600F004F863
:102E600000BF0837BD4680BD80B584B000AF0346C3
:102E70003A60FB710B46BB71002000F01DF8FB7936
:102E800063F07F03DBB2FB7307F10F0164230122C0
:102E9000084803F0BBF9BB799AB264233968054846
:102EA00003F0F8FA012000F007F800BF1037BD4624
:102EB00080BD00BF6805002080B582B000AF03462A
:102EC000FB71FB791A464FF48051034802F0F4FC81
:102ED00000BF0837BD4680BD000C014080B584B0FE
:102EE00000AF7860FFF7A0FFFFF79EFF0346702B4F
:102EF00028D16B23FB730023BB73BA7BFB7B0121BF
:102F0000184600F02DF86A23FB731023BB73BA7BBD
:102F1000FB7B0121184600F023F81123BB7304202A
:102F200000F078F87B6893F858301946786800F01C
:102F300087F87B6893F859301946786800F0DCF818
:102F4000012307E0FFF770FF034619460348FEF729
:102F500073F9002318461037BD4680BDE4FF000812
:102F600080B582B000AF0346FB710B46BB711346C0
:102F70007B717A1DB979FB79184600F007F80A20B1
:102F800002F032F900BF0837BD4680BD80B582B07F
:102F900000AF03463A60FB710B46BB710020FFF7A0
:102FA0008BFFFB79184600F017F80AE03B681B78A6
:102FB000184600F011F8BB79013BBB713B68013347
:102FC0003B60BB79002BF1D10120FFF775FF00BFFB
:102FD0000837BD4680BD000080B586B002AF03460D
:102FE000FB710023FB7307F10F02F91D4FF48053AF
:102FF00000930123064803F066FB0346002B01D033
:10300000FF2300E0FB7B18461037BD4680BD00BFA4
:103010006805002080B582B000AF0346FB71FB79E4
:103020001A4601211D20FFF79BFFFB791A4601215B
:103030001A20FFF795FF00BF0837BD4680BD00008E
:1030400080B584B000AF78600B46FB701C23FB7327
:10305000FB78032B3ED801A252F823F06D30000814
:1030600087300008A1300008BB3000087B684FF0B3
:103070008D42DA600023BB73BA7BFB7B01211846CB
:10308000FFF76EFF33E07B684FF08C42DA60082375
:10309000BB73BA7BFB7B01211846FFF761FF26E07B
:1030A0007B684FF08B42DA601023BB73BA7BFB7BEB
:1030B00001211846FFF754FF19E07B684FF08A4260
:1030C000DA601823BB73BA7BFB7B01211846FFF73C
:1030D00047FF0CE07B684FF08C42DA600823BB733B
:1030E000BA7BFB7B01211846FFF73AFF00BF00BF08
:1030F0001037BD4680BD00BF80B584B000AF78609A
:103100000B46FB701B23FB73FB78032B3AD801A201
:1031100052F823F0253100083D31000855310008F0
:103120006D3100087B681F4A1A610023BB73BA7BAC
:10313000FB7B01211846FFF713FF2FE07B681A4A3B
:103140001A610823BB73BA7BFB7B01211846FFF78A
:1031500007FF23E07B68154A1A611023BB73BA7B13
:10316000FB7B01211846FFF7FBFE17E07B68104A46
:103170001A611823BB73BA7BFB7B01211846FFF74A
:10318000EFFE0BE07B68084A1A610823BB73BA7B29
:10319000FB7B01211846FFF7E3FE00BF00BF10379D
:1031A000BD4680BD00000343000083423333034229
:1031B0003333834180B586B000AF78603B2140480F
:1031C00000F000FA03463B723C213D4800F0FAF95A
:1031D00003467B723D213A4800F0F4F90346BB7286
:1031E0003E21374800F0EEF90346FB723F21344898
:1031F00000F0E8F903463B734021314800F0E2F962
:1032000003467B7343212E4800F0DCF90346BB7371
:1032100044212B4800F0D6F90346FB73452128488A
:1032200000F0D0F903463B744621254800F0CAF966
:1032300003467B744721224800F0C4F90346BB745F
:1032400048211F4800F0BEF90346FB743B7A1B027D
:103250001AB27B7A1BB213431AB27B681A80BB7A0C
:103260001B021AB2FB7A1BB213431AB27B685A8054
:103270003B7B1B021AB27B7B1BB213431AB27B68E7
:103280009A80BB7B1B021AB2FB7B1BB213431AB2A0
:103290007B68DA803B7C1B021AB27B7C1BB2134337
:1032A0001AB27B681A81BB7C1B021AB2FB7C1BB270
:1032B00013431AB27B685A8100BF1837BD4680BDE0
:1032C0006805002080B582B000AF7860786800F0B3
:1032D00007F800BF0837BD4680BD000000000000B1
:1032E0002DE9B04386B004AF78607868FFF762FFDD
:1032F0007B68B3F900301846FDF784F89EA3D3E944
:103300000023FCF731FF02460B4610461946FDF735
:10331000DBFB02467B685A617B68B3F902301846D2
:10332000FDF770F896A3D3E90023FCF71DFF0246D2
:103330000B4610461946FDF7C7FB02467B689A61AB
:103340007B68B3F904301846FDF75CF88EA3D3E927
:103350000023FCF709FF02460B4610461946FDF70D
:10336000B3FB02467B68DA617B68B3F9003018462C
:10337000FDF7B4FC02467B68DB6819461046FDF792
:10338000B5FD03461A467B685A617B68B3F9023083
:103390001846FDF7A3FC02467B68DB681946104619
:1033A000FDF7A4FD03461A467B689A617B68B3F972
:1033B00004301846FDF792FC02467B68DB6819462C
:1033C0001046FDF793FD03461A467B68DA617B6879
:1033D000B3F906301846FDF715F86DA3D3E90023BD
:1033E000FCF7C4FE02460B4610461946FDF76CFB7F
:1033F00002467B681A627B68B3F908301846FDF70D
:1034000001F865A3D3E90023FCF7AEFE02460B46A4
:1034100010461946FDF758FB02467B685A627B68E6
:10342000B3F90A301846FCF7EDFF5DA3D3E900239A
:10343000FCF79CFE02460B4610461946FDF744FB7E
:1034400002467B689A627B681A6A7B681B69194628
:103450001046FDF74BFD03461846FCF7E5FF52A367
:10346000D3E90023FDF738F802460B46104619460B
:10347000FDF72AFB02467B681A627B685A6A7B6802
:103480001B6919461046FDF731FD03461846FCF747
:10349000CBFF45A3D3E90023FDF71EF802460B46F8
:1034A00010461946FDF710FB02467B685A627B689E
:1034B0009A6A7B681B6919461046FDF717FD03469B
:1034C0001846FCF7B1FF38A3D3E90023FDF704F851
:1034D00002460B4610461946FDF7F6FA02467B688F
:1034E0009A623348FDF7A8FE3248FDF7A5FE7B68D7
:1034F0005B691846FCF798FF804689467B689B69A4
:103500001846FCF791FF04460D467B68DB691846B8
:10351000FCF78AFF02460B46CDE90223CDE90045C0
:1035200042464B462448FDF787FE2448FDF784FEBB
:103530007B681B6A1846FCF777FF804689467B68E4
:103540005B6A1846FCF770FF04460D467B689B6A71
:103550001846FCF769FF02460B46CDE90223CDE988
:10356000004542464B461648FDF766FE00BF083749
:10357000BD46BDE8B08300BFEFC9C342ADE18040A6
:10358000D9CEF753E395684017D9CEF7D3099840C1
:10359000A69BC420B0266F401B2FDD2406B17140CE
:1035A0003108AC1C5A64094011E226A246DF913F63
:1035B0000000010828000108380001085C0001082B
:1035C0006C00010880B584B000AF78600B46FB70DA
:1035D000FB7863F07F03DBB2FB700020FFF76CFC2D
:1035E000F91C64230122786802F010FE07F10F0134
:1035F00064230122786802F04DFF0120FFF75CFC94
:10360000FB7B18461037BD4680BD000080B584B0F6
:1036100000AF78600B46FB70FB7863F07F03DBB292
:10362000FB70002210210D4802F046F9F91C6423BA
:103630000122786802F0EAFD07F10F0164230122FC
:10364000786802F027FF01221021044802F034F9C3
:10365000FB7B18461037BD4680BD00BF0008014007
:1036600080B582B000AF78600B46FB701346BB702C
:10367000FB7803F07F03DBB2FB70002210210C48C3
:1036800002F01AF9F91C64230122786802F0BEFDE9
:10369000B91C64230122786802F0B8FD01221021D0
:1036A000034802F009F900BF0837BD4680BD00BFDE
:1036B0000008014080B584B000AF78600B46FB7015
:1036C0007423FB73FB7B1A4620217868FFF7C8FF41
:1036D000FB781A4621217868FFF7C2FF0023BB73ED
:1036E000BB7B1A4622217868FFF7BAFF0C237B7355
:1036F0007B7B1A4623217868FFF7B2FF0123184627
:103700001037BD4680BD00002DE9B0438AB006AF3A
:10371000786028216448FFF779FF03463B7229212E
:103720006148FFF773FF03467B722A215E48FFF76B
:103730006DFF0346BB722B215B48FFF767FF034613
:10374000FB722C215848FFF761FF03463B732D2184
:103750005548FFF75BFF03467B737B7A1B021AB267
:103760003B7A1BB213431AB27B681A80FB7A1B02A6
:103770001AB2BB7A1BB213431AB27B685A807B7BA6
:103780001B021AB23B7B1BB213431AB27B689A80AE
:103790007B68B3F900301846FDF7A0FA03464349A9
:1037A0001846FDF7EFFA03461A467B689A607B6875
:1037B000B3F902301846FDF791FA03463B49184623
:1037C000FDF7E0FA03461A467B68DA607B68B3F9D6
:1037D00004301846FDF782FA034634491846FDF7CF
:1037E000D1FA03461A467B681A617B689A687B683F
:1037F0009B6819461046FDF7C5FA03461C467B68D0
:10380000DA687B68DB6819461046FDF7BBFA0346A9
:1038100019462046FDF7AEF903461C467B681A6937
:103820007B681B6919461046FDF7ACFA034619463A
:103830002046FDF79FF903461846FCF7F5FD0246C2
:103840000B461046194609F0B3FE02460B4679684E
:10385000C1E906231648FDF7EFFC7B689B68184614
:10386000FCF7E2FD804689467B68DB681846FCF77A
:10387000DBFD04460D467B681B691846FCF7D4FD4A
:103880007B68D3E90623CDE90423CDE90201CDE924
:10389000004542464B460748FDF7CEFC00BF1037B7
:1038A000BD46BDE8B08300BF6805002068916D3D4E
:1038B000900001089C00010880B586B000AF072287
:1038C00000215B4805F04EF85A4B00221A7041F671
:1038D000583307225649584804F003FA0346002B90
:1038E00040F094805548FDF7A7FC00237B610AE077
:1038F0004F4A7B6913441B7819465148FDF79CFCDD
:103900007B6901337B617B69062BF1DD4D48FDF757
:1039100093FC0023FB71464B1B78FA799A4211D134
:1039200000233B610BE03B690133414AD15C404AD3
:103930003B6913440A461A703B6901333B613B699A
:10394000062BF0D93A4B1B78532B30D1384B5B798F
:103950007E2B2CD13C48FDF76FFC4FF4FA63072215
:103960003349354804F032F90346002B5CD137481F
:10397000FDF762FC0023FB600AE02D4AFB6813445C
:103980001B7819462E48FDF757FCFB680133FB6096
:10399000FB68062BF1DD2B48FDF74EFC254B012281
:1039A0001A7007220021224804F0DCFF3CE028487E
:1039B000FDF742FC4FF4FA6307221D491E4804F04C
:1039C00005F90346002B2FD12248FDF735FC0023D3
:1039D000BB600AE0164ABB6813441B7819461848B6
:1039E000FDF72AFCBB680133BB60BB68062BF1DD29
:1039F0001448FDF721FC072200210D4804F0B2FF16
:103A00000C4B00221A70FFF757FF0DE0094B002204
:103A10001A701148FDF710FC07220021044804F039
:103A2000A1FFFFF749FFFFE700BF1837BD4680BD84
:103A3000A4020020890400205C030020D8000108B3
:103A40000801010810010108140101083C010108E6
:103A50006801010894010108C401010880B586B01D
:103A600000AFF860B9607A601849B868FDF78AF964
:103A7000034619464FF07E50FDF738FA03467B6146
:103A800079697868FDF776F8034619467868FDF796
:103A90002DFA03461A46FB681A6079697868FDF7C3
:103AA00069F8034619467869FDF720FA03461A4675
:103AB000FB685A60FB684FF000029A60FB684FF0A9
:103AC0000002DA6000BF1837BD4680BDF90FC9405B
:103AD00090B583B000AF786039607B689A687B6886
:103AE000DA607B681B6839681846FDF74BF90346B6
:103AF0001C467B685A687B68DB6819461046FDF7F0
:103B000041F9034619462046FDF734F803461A46A4
:103B10007B689A607B689B6818460C37BD4690BDF1
:103B2000F0B587B000AF786039604FF000037B617B
:103B30004FF000033B617B685C687B689B689C4935
:103B40001846FDF717F8034619462046FDF7CEF94B
:103B50000346184609F08EFB03461846FCF764FC42
:103B60008FA3D3E90023FCF7B7FC02460B461046AF
:103B70001946FCF7A9FF03467B617B681B688D49EA
:103B80001846FDF7B3F90346184609F03DFD034614
:103B90001846FCF749FC82A3D3E90023FCF79CFC00
:103BA00002460B4610461946FCF78EFF03463B6162
:103BB0003B687A691A603B683A695A604FF00003C3
:103BC0007B614FF000033B617B68DC683869FCF780
:103BD0002BFC75A3D3E90023FCF77EFC02460B46C1
:103BE00010461946FCF770FF0346184609F0BCFC66
:103BF00005467869FCF718FC6BA3D3E90023FCF7B2
:103C00006BFC02460B4610461946FCF75DFF034667
:103C1000184609F073FC02467B681B69194610467A
:103C2000FDF7B0F803461E467869FCF7FDFB5EA37E
:103C3000D3E90023FCF750FC02460B461046194618
:103C4000FCF742FF0346184609F020FC02467B6859
:103C50005B6919461046FDF795F80346194630464C
:103C6000FCF788FF034619462846FDF78BF8034604
:103C700019462046FCF77EFF0346FB607869FCF797
:103C8000D3FB49A3D3E90023FCF726FC02460B46ED
:103C900010461946FCF718FF0346184609F0F6FBD4
:103CA00002467B681B6919461046FDF76BF8034610
:103CB0001C467869FCF7B8FB3BA3D3E90023FCF76B
:103CC0000BFC02460B4610461946FCF7FDFE034668
:103CD000184609F013FC02467B685B6919461046DA
:103CE000FDF750F8034619462046FCF741FF03460E
:103CF000BB607869FCF798FB2BA3D3E90023FCF7A2
:103D0000EBFB02460B4614461D46F868FCF78CFB9D
:103D100002460B4620462946FCF728FA02460B4687
:103D2000104619461EA3D3E90023FCF7D5FB024633
:103D30000B4610461946FCF7C7FE03467B613869FF
:103D4000FCF772FB18A3D3E90023FCF7C5FB02467E
:103D50000B4614461D46B868FCF766FB02460B4648
:103D600020462946FCF702FA02460B461046194641
:103D70000BA3D3E90023FCF7AFFB02460B4610462A
:103D80001946FCF7A1FE03463B613B687A699A60DD
:103D90003B683A69DA6000BF1C37BD46F0BD00BF22
:103DA000B0CB631ADCA54C4011E226A246DF913F5E
:103DB000BD378635C3F51C41F0B589B000AF7860DA
:103DC00039603B685B68FB613B681B68BB617B6873
:103DD0005C687B689B6856491846FCF7CBFE034637
:103DE00019462046FDF782F80346184609F042FAC4
:103DF00078617B681B684F491846FDF777F80346E2
:103E0000184609F001FC38617B68DC68F86909F044
:103E1000ABFB0546B86909F071FB02467B681B697C
:103E200019461046FCF7AEFF03461E46B86909F076
:103E30002DFB02467B685B6919461046FCF7A2FF22
:103E4000034619463046FCF795FE034619462846B8
:103E5000FCF798FF034619462046FCF78BFE034605
:103E6000FB60B86909F012FB02467B681B691946C2
:103E70001046FCF787FF03461C46B86909F03EFB75
:103E800002467B685B6919461046FCF77BFF0346D8
:103E900019462046FCF76CFE0346BB60264978694C
:103EA000FCF770FF03461C46F968B869FCF762FE30
:103EB000034622491846FCF765FF0346194620468B
:103EC000FCF758FE0346BB611B493869FCF75AFFF3
:103ED00003461C46B968F869FCF74CFE03461749CF
:103EE0001846FCF74FFF034619462046FCF742FEF2
:103EF0000346FB613B68FA695A603B68BA691A601D
:103F00003B681B681846FCF78FFA02460B460C48C4
:103F1000FDF792F93B685B681846FCF785FA0246A4
:103F20000B460848FDF788F900BF2437BD46F0BDB1
:103F3000BD378635C3F51C41CDCC4C3D3333733F83
:103F4000F8010108200201082DE9B043A2B002AF38
:103F500078603960BE4BFB67BE4BBB67BE4B7B676F
:103F6000BB6FFB64BB6F3B657B6F3B647B6F7B64AC
:103F70007B6FBB64FB6FBB63FB6FFB634FF00003A6
:103F80003B674FF00003FB664FF00003BB664FF04A
:103F900000037B664FF000033B664FF00003FB65B8
:103FA0007B681B683B677B685B68FB667B689B681C
:103FB000BB667B68DB687B667B681B693B667B68EE
:103FC0005B69FB6507F1400307F14C0207F138011B
:103FD00007F10C00FDF704FC07F10C009F4B009368
:103FE000FB6D3A6E796EFDF733FC07F10C00BB6E8A
:103FF000FA6E396FFDF7DDFD3A693B685A60FA6881
:104000003B681A60964B9B691846FCF70DFA04460C
:104010000D463B685B681846FCF706FA02460B46FD
:104020001046194609F09EF802460B4620462946DE
:10403000FCF752FA02460B4690469946884BDB69DC
:104040001846FCF7F1F904460D463B681B68184614
:10405000FCF7EAF902460B461046194609F0C4F887
:1040600002460B4620462946FCF736FA02460B4626
:1040700014461D463B685B681846FCF7D5F90246B6
:104080000B461046194609F0AFF802460B4620468B
:104090002946FCF721FA02460B4640464946FCF702
:1040A00063F802460B46904699466D4B1B6A1846CC
:1040B000FCF7BAF904460D463B681B681846FCF746
:1040C000B3F902460B461046194609F04BF8024672
:1040D0000B4620462946FCF7FFF902460B461446DC
:1040E0001D463B685B681846FCF79EF902460B4686
:1040F0001046194609F078F802460B462046294634
:10410000FCF7EAF902460B4640464946FCF72EF812
:1041100002460B4610461946FCF7D6FC0346BB6523
:104120004F4BDB691846FCF77FF904460D463B68A8
:104130001B681846FCF778F902460B4610461946EC
:1041400009F010F802460B4620462946FCF7C4F950
:1041500002460B4690469946414B1B6A1846FCF7AF
:1041600063F904460D463B681B681846FCF75CF98A
:1041700002460B461046194609F036F802460B4631
:1041800020462946FCF7A8F902460B464046494618
:10419000FBF7ECFF02460B4610461946FCF794FC71
:1041A00003467B65786DFCF73FF904460D46B86D14
:1041B000FCF73AF902460B462046294609F0F6F983
:1041C00002460B4610461946FCF77EFC02463B6849
:1041D0009A603B691846FCF727F91BA3D3E9002333
:1041E000FCF77AF902460B4610461946FCF76CFCC0
:1041F00002463B685A60FB681846FCF715F912A3A3
:10420000D3E90023FCF768F902460B46104619462D
:10421000FCF75AFC02463B681A603B689B681846EC
:10422000FCF702F908A3D3E90023FCF755F902468D
:104230000B4610461946FCF747FC02463B689A605D
:104240003B685B6818460DE0B0CB631ADCA54C40B8
:10425000CDCCCC3D6F12833A5839343C0BD7233C3C
:10426000A8030020FCF7E0F802460B460D48FCF7D7
:10427000E3FF3B681B681846FCF7D6F802460B467E
:104280000948FCF7D9FF3B689B681846FCF7CCF857
:1042900002460B460548FCF7CFFF00BF8037BD46FE
:1042A000BDE8B083480201086802010888020108DD
:1042B00084B080B500AF07F1080C8CE80F000A4904
:1042C00007F10800FFF72CFC084907F10800FFF789
:1042D00073FD064907F10800FFF736FE00BFBD4633
:1042E000BDE8804004B0704720040020B0020020E8
:1042F00080B584B000AF78607B68364A934264D161
:10430000354B1B680133344A1360334B1B68B3F5DC
:104310007A7F0CD3314B1B680133304A1360304B2A
:104320001B6801332E4A13602B4B00221A602C4B62
:104330001B680A2B49D1FDF7E7F9294B00221A60C7
:104340002848FCF779FF234802F012FD264BDB6872
:104350001846FCF719FF0346DAB2244B9A71224B38
:104360001B691846FCF710FF0346DAB21F4BDA71DF
:104370001D4B5B691846FCF707FF0346DAB21B4B7F
:104380001A721B48FCF758FF4FF47A730922174939
:10439000184803F01BFC0346002B10D10023FB60E0
:1043A0000AE0124AFB6813441B7819461248FCF7CE
:1043B00043FFFB680133FB60FB68082BF1D9064B18
:1043C00000221A60054B00221A6000BF1037BD465C
:1043D00080BD00BFBC040020680200206C020020E9
:1043E00070020020A8020108A8030020B0040020E9
:1043F000B80201085C030020D8020108F0B599B0AA
:104400000CAF00F08FFE00F0B7F800F0D7FA00F024
:1044100081FA00F0A9FA00F0F5F800F0AFF900F029
:1044200013FA00F05BF900F023F94A48FCF704FFA7
:104430004948FCF701FF01E0FFF73EFA474B1B78C4
:10444000002BF9D0454B00221A704548FCF7F4FECA
:1044500001E0FFF731FA414B1B78002BF9D03F4BBD
:104460001B78012BFBD13F48FEF75EFA4FF47A70C0
:1044700000F0BAFE3C4C3B463C4A3A491846FEF72F
:10448000B9FC25463C460FCC0FC50FCC0FC594E8B0
:104490000F0085E80F004FF47A7000F0A5FE324E51
:1044A0006D4606F110040FCC0FC594E80F0085E8A7
:1044B0000F0096E80F00FFF7FBFE2D4B1B68184618
:1044C000FCF762FE0346DAB22A4B1A70284B5B688F
:1044D0001846FCF759FE0346DAB2264B5A70244BB5
:1044E0009B681846FCF750FE0346DAB2214B9A70DF
:1044F0001D4BDB681846FCF747FE0346DAB21D4B3E
:10450000DA70194B1B691846FCF73EFE0346DAB217
:10451000184B1A71144B5B691846FCF735FE0346BD
:10452000DAB2144B5A71104E114A09AB07CA83E82C
:1045300007000E4B08936D4606F110040FCC0FC513
:1045400094E80F0085E80F0096E80F00FCF7B0FE36
:1045500085E700BFE002010810030108890400207C
:104560004803010804050020A8030020C00500201E
:10457000B0020020B004002080B590B000AF07F179
:10458000180328220021184604F0ECF93B1D0022F4
:104590001A605A609A60DA601A610123BB614FF4B5
:1045A0008033FB6100233B620123BB6202237B63F8
:1045B0004FF48033BB634FF4E013FB6307F1180340
:1045C000184601F091F90346002B01D000F056FA8D
:1045D0000F237B600223BB600023FB604FF48063EA
:1045E0003B6100237B613B1D0221184601F0FCFB6F
:1045F0000346002B01D000F041FA00BF4037BD4612
:1046000080BD000080B500AF174B184A1A60164BEA
:104610004FF482725A60144B00229A60124B0022AF
:10462000DA60114B00221A610F4B00225A610E4BC7
:104630004FF400729A610C4B2022DA610A4B00227F
:104640001A62094B00225A62074B00229A62064BFB
:104650000A22DA62044801F055FD0346002B01D01E
:1046600000F00CFA00BF80BD68050020003001405A
:1046700080B500AF174B184A1A60164B4FF4827280
:104680005A60144B00229A60124B0022DA60114BE0
:1046900000221A610F4B00225A610E4B4FF4007238
:1046A0009A610C4B0022DA610A4B00221A62094B14
:1046B00000225A62074B00229A62064B0A22DA62F3
:1046C000044801F01FFD0346002B01D000F0D6F98D
:1046D00000BF80BDBC0200200038004080B586B01D
:1046E00000AF07F1080300221A605A609A60DA608E
:1046F0003B4600221A605A601E4B1F4A1A601D4B2F
:1047000047225A601B4B00229A601A4B40F2E73254
:10471000DA60184B00221A61164B00225A61154BC1
:1047200000229A61134802F082FA0346002B01D05E
:1047300000F0A4F94FF48053BB6007F10803194659
:104740000C4802F0E7FD0346002B01D000F096F97B
:1047500000233B6000237B603B461946054803F07D
:1047600075F90346002B01D000F088F900BF183717
:10477000BD4680BDBC040020002C014080B58AB03D
:1047800000AF07F1200300221A605A603B1D00228F
:104790001A605A609A60DA601A615A619A61284B0D
:1047A000284A1A60264B40F2CF725A60244B0022EE
:1047B0009A60234B48F69F42DA60214B00221A612F
:1047C0001F4B00229A611E4802F000FB0346002B9B
:1047D00001D000F053F900233B6200237B6207F114
:1047E00020031946164803F031F90346002B01D087
:1047F00000F044F960237B600023BB600023FB6072
:1048000000237B613B1D002219460D4802F0C0FCCD
:104810000346002B01D000F031F93B1D042219465C
:10482000074802F0B5FC0346002B01D000F026F942
:10483000034800F039FA00BF2837BD4680BD00BFED
:10484000D80300200004004080B58AB000AF07F113
:10485000200300221A605A603B1D00221A605A6031
:104860009A60DA601A615A619A61284B284A1A6084
:10487000264B40F2CF725A60244B00229A60234BA1
:1048800048F69F42DA60214B00221A611F4B00223A
:104890009A611E4802F09AFA0346002B01D000F0FC
:1048A000EDF800233B6200237B6207F120031946E9
:1048B000164803F0CBF80346002B01D000F0DEF8D9
:1048C00060237B600023BB600023FB6000237B61CF
:1048D0003B1D082219460D4802F05AFC0346002BE6
:1048E00001D000F0CBF83B1D0C221946074802F01E
:1048F0004FFC0346002B01D000F0C0F8034800F045
:10490000D3F900BF2837BD4680BD00BF1403002087
:104910000008004080B500AF114B124A1A60104BDE
:104920004FF4E1325A600E4B00229A600C4B002289
:10493000DA600B4B00221A61094B0C225A61084BBA
:1049400000229A61064B0022DA61054803F0EEF876
:104950000346002B01D000F091F800BF80BD00BFDE
:10496000300400200038014080B500AF114B124ADE
:104970001A60104B4FF4E1325A600E4B00229A60DD
:104980000C4B0022DA600B4B00221A61094B0C22FF
:104990005A61084B00229A61064B0022DA610548F1
:1049A00003F0C4F80346002B01D000F067F800BF05
:1049B00080BD00BF5C0300200048004080B588B087
:1049C00000AF07F1100300221A605A609A60DA60A3
:1049D000274B9B69264A43F020039361244B9B6934
:1049E00003F02003FB60FB68214B9B69204A43F0E6
:1049F000040393611E4B9B6903F00403BB60BB6817
:104A00001B4B9B691A4A43F008039361184B9B693F
:104A100003F008037B607B6800221021154800F03A
:104A20004BFF002241F20801134800F045FF10231C
:104A30003B6101237B610023BB610223FB6107F122
:104A4000100319460B4800F0B3FD41F208033B6127
:104A500001237B610023BB610223FB6107F110038B
:104A60001946054800F0A4FD00BF2037BD4680BDB3
:104A70000010024000080140000C014080B400AF6B
:104A800072B600BFFEE7000080B485B000AF154BE2
:104A90009B69144A43F001039361124B9B6903F035
:104AA0000103BB60BB680F4BDB690E4A43F08053C8
:104AB000D3610C4BDB6903F080537B607B680A4B4E
:104AC0005B68FB60FB6823F0E063FB60FB6843F01E
:104AD0000073FB60044AFB68536000BF1437BD4697
:104AE00080BC7047001002400000014080B58AB0D1
:104AF00000AF786007F1180300221A605A609A60CC
:104B0000DA607B681B68374A934230D1364B9B6929
:104B1000354A43F480539361334B9B6903F48053CC
:104B20007B617B69304B9B692F4A43F0040393619F
:104B30002D4B9B6903F004033B613B69A023BB61E0
:104B40000223FB6103237B6207F118031946274800
:104B500000F02EFD4023BB610023FB6100233B627C
:104B600007F118031946214800F022FD36E07B6862
:104B70001B681F4A934231D11B4BDB691A4A43F42D
:104B80008043D361184BDB6903F48043FB60FB680F
:104B9000154B9B69144A43F008039361124B9B69C0
:104BA00003F00803BB60BB684FF42043BB610223E2
:104BB000FB6103237B6207F1180319460D4800F0DF
:104BC000F7FC4FF48043BB610023FB6100233B6291
:104BD00007F118031946074800F0EAFC00BF283720
:104BE000BD4680BD00300140001002400008014079
:104BF00000380040000C014080B584B000AF786000
:104C00007B681B680D4A934213D10D4B9B690C4A7C
:104C100043F4006393610A4B9B6903F40063FB60F8
:104C2000FB6800220021192000F0D9FB192000F0B8
:104C3000F2FB00BF1037BD4680BD00BF002C014015
:104C40000010024080B485B000AF78607B681B68BC
:104C5000124A93420CD1124BDB69114A43F0020312
:104C6000D3610F4BDB6903F00203FB60FB6810E0CC
:104C70007B681B680B4A93420BD1094BDB69084ADE
:104C800043F00403D361064BDB6903F00403BB600C
:104C9000BB6800BF1437BD4680BC704700040040AD
:104CA000001002400008004080B58AB000AF786074
:104CB00007F1140300221A605A609A60DA607B6878
:104CC0001B68284A93422AD1274B9B69264A43F006
:104CD00008039361244B9B6903F008033B613B6924
:104CE00030237B610223BB6102233B6207F1140383
:104CF00019461E4800F05CFC1D4B5B687B627B6ABA
:104D000023F440637B627B6A43F0E0637B627B6AEF
:104D100043F400637B62164A7B6A53601DE07B6844
:104D20001B68144A934218D10F4B9B690E4A43F0FB
:104D3000080393610C4B9B6903F00803FB60FB685D
:104D40004FF440737B610223BB6102233B6207F196
:104D500014031946054800F02BFC00BF2837BD4658
:104D600080BD00BF0004004000100240000C014064
:104D7000000001400008004080B58CB000AF7860B2
:104D800007F11C0300221A605A609A60DA607B689F
:104D90001B68464A934246D1454B9B69444A43F4BB
:104DA00080439361424B9B6903F48043BB61BB69C1
:104DB0003F4B9B693E4A43F0080393613C4B9B6920
:104DC00003F008037B617B694023FB6102233B62A4
:104DD0000323BB6207F11C031946364800F0E8FBC9
:104DE0008023FB6100233B6200237B6207F11C03ED
:104DF0001946304800F0DCFB2F4B5B68FB62FB6A16
:104E000043F0E063FB62FB6A43F00403FB622A4A5F
:104E1000FB6A536000220021252000F0E0FA2520E3
:104E200000F0F9FA3EE07B681B68244A934239D1CE
:104E30001F4BDB691E4A43F48023D3611C4BDB69A3
:104E400003F480233B613B69194B9B69184A43F08B
:104E500008039361164B9B6903F00803FB60FB6832
:104E60004FF48063FB6102233B620323BB6207F1C3
:104E70001C0319460F4800F09BFB4FF40063FB61D5
:104E800000233B6200237B6207F11C03194609489B
:104E900000F08EFB00220021272000F0A0FA27203E
:104EA00000F0B9FA00BF3037BD4680BD0038014080
:104EB00000100240000C014000000140004800408A
:104EC00080B400AFFEE780B400AFFEE780B400AF6F
:104ED000FEE780B400AFFEE780B400AFFEE780B429
:104EE00000AF00BFBD4680BC704780B400AF00BFBC
:104EF000BD4680BC704780B400AF00BFBD4680BCDB
:104F0000704780B500AF00F053F900BF80BD0000CE
:104F100080B500AF024802F04BF800BF80BD00BF73
:104F2000BC04002080B500AF024802F071FF00BF52
:104F300080BD00BF3004002080B500AF024802F001
:104F400067FF00BF80BD00BF5C03002080B400AFDE
:104F500001231846BD4680BC704780B582B000AFC3
:104F60007860396003F0ACFC034616221A604FF0FB
:104F7000FF3318460837BD4680BD80B582B000AF0C
:104F800078604FF0FF317868FFF7E7FFFEE780B504
:104F900086B000AFF860B9607A6000237B610AE0F8
:104FA000AFF300800146BB685A1CBA60CAB21A70DF
:104FB0007B6901337B617A697B689A42F0DB7B68AD
:104FC00018461837BD4680BD80B586B000AFF86082
:104FD000B9607A6000237B6109E0BB685A1CBA6043
:104FE0001B781846AFF300807B6901337B617A69D7
:104FF0007B689A42F1DB7B6818461837BD4680BD56
:1050000080B483B000AF78604FF0FF3318460C37A0
:10501000BD4680BC704780B483B000AF7860396013
:105020003B684FF400525A60002318460C37BD46C7
:1050300080BC704780B483B000AF7860012318460D
:105040000C37BD4680BC704780B485B000AFF860B7
:10505000B9607A60002318461437BD4680BC70479B
:1050600080B586B000AF7860144A154BD31A7B61C7
:105070007B693B61134B1B68002B02D1114B124A19
:105080001A60104B1A687B6813443A699A4207D237
:1050900003F016FC03460C221A604FF0FF3309E0C0
:1050A000084B1B68FB60074B1A687B681344054A72
:1050B0001360FB6818461837BD4680BD00500020BD
:1050C00000040000740200200006002080B400AF3D
:1050D00000BFBD4680BC7047FFF7F8FF0B480C4986
:1050E0000C4A002302E0D458C4500433C4188C4244
:1050F000F9D3094A094C002301E013600432A242AB
:10510000FBD303F0F5FBFFF779F9704700000020AF
:10511000E4010020980E0108E8010020FC050020B1
:10512000FEE7000080B500AF084B1B68074A43F05C
:1051300010031360032000F047F90F2000F008F877
:10514000FFF7A2FC0023184680BD00BF00200240EC
:1051500080B582B000AF7860124B1A68124B1B7892
:1051600019464FF47A73B3FBF1F3B2FBF3F318462D
:1051700000F05FF90346002B01D001230EE07B68AD
:105180000F2B0AD8002279684FF0FF3000F027F982
:10519000064A7B681360002300E0012318460837A5
:1051A000BD4680BD00000020080000200400002053
:1051B00080B400AF054B1B781A46054B1B6813449F
:1051C000034A136000BFBD4680BC70470800002042
:1051D000E805002080B400AF024B1B681846BD46AE
:1051E00080BC7047E805002080B584B000AF7860CF
:1051F000FFF7F0FFB8607B68FB60FB68B3F1FF3F2F
:1052000005D00A4B1B781A46FB681344FB6000BFAD
:10521000FFF7E0FF0246BB68D31AFA689A42F7D854
:1052200000BF00BF1037BD4680BD00BF0800002092
:1052300080B485B000AF78607B6803F00703FB6043
:105240000C4BDB68BB60BA684FF6FF031340BB60D2
:10525000FB681A02BB68134343F0BF6343F4003397
:10526000BB60044ABB68D36000BF1437BD4680BC36
:10527000704700BF00ED00E080B400AF044BDB6876
:105280001B0A03F007031846BD4680BC704700BFE9
:1052900000ED00E080B483B000AF0346FB7197F9E6
:1052A0000730002B0BDBFB7903F01F02064997F94F
:1052B00007305B09012000FA02F241F8232000BF09
:1052C0000C37BD4680BC704700E100E080B483B07D
:1052D00000AF03463960FB7197F90730002B0ADBFA
:1052E0003B68DAB20C4997F907301201D2B20B448D
:1052F00083F800230AE03B68DAB20849FB7903F03F
:105300000F03043B1201D2B20B441A7600BF0C37D4
:10531000BD4680BC704700BF00E100E000ED00E04A
:1053200080B489B000AFF860B9607A60FB6803F0C0
:105330000703FB61FB69C3F10703042B28BF0423A8
:10534000BB61FB690433062B02D9FB69033B00E018
:1053500000237B614FF0FF32BB6902FA03F3DA43AB
:10536000BB681A407B699A404FF0FF317B6901FAB4
:1053700003F3D9437B680B40134318462437BD46DB
:1053800080BC704780B582B000AF78607B68013B1D
:10539000B3F1807F01D301230FE00A4A7B68013B10
:1053A00053600F214FF0FF30FFF790FF054B0022B5
:1053B0009A60044B07221A60002318460837BD463E
:1053C00080BD00BF10E000E080B582B000AF786023
:1053D0007868FFF72DFF00BF0837BD4680BD80B558
:1053E00086B000AF0346B9607A60FB7300237B612F
:1053F000FFF742FF78617A68B9687869FFF790FF34
:10540000024697F90F3011461846FFF75FFF00BFBD
:105410001837BD4680BD80B582B000AF0346FB7132
:1054200097F907301846FFF735FF00BF0837BD462C
:1054300080BD80B582B000AF78607868FFF7A2FFCA
:10544000034618460837BD4680BD80B485B000AF1E
:1054500078600023FB737B6893F82130DBB2022B6A
:1054600008D07B6804229A637B68002283F820209E
:10547000012320E07B681B681A687B681B6822F0A8
:105480000E021A607B681B681A687B681B6822F032
:1054900001021A607B681A6C7B68DB6B012101FAE0
:1054A00002F25A607B68012283F821207B68002287
:1054B00083F82020FB7B18461437BD4680BC70471C
:1054C00080B584B000AF78600023FB737B6893F8ED
:1054D0002130DBB2022B05D07B6804229A630123C2
:1054E000FB7351E07B681B681A687B681B6822F0BD
:1054F0000E021A607B681B681A687B681B6822F0C2
:1055000001021A607B681B68224A934229D07B689B
:105510001B68214A934222D07B681B681F4A934232
:105520001AD07B681B681E4A934212D07B681B68A6
:105530001C4A93420AD07B681B681B4A934202D1E3
:105540004FF480130EE04FF080730BE04FF4803384
:1055500008E04FF4805305E04FF4807302E010231D
:1055600000E00123114A53607B68012283F8212067
:105570007B68002283F820207B685B6B002B03D0C4
:105580007B685B6B78689847FB7B18461037BD4695
:1055900080BD00BF080002401C00024030000240F5
:1055A00044000240580002406C00024000000240EB
:1055B00080B48BB000AF7860396000237B62002339
:1055C0003B6269E101227B6A02FA03F3FB613B68FB
:1055D0001B68FA691340BB61BA69FB699A4240F0E3
:1055E00058813B685B689A4A93425ED0984A9342DE
:1055F00075D8984A934258D0964A93426FD8964AA3
:10560000934252D0944A934269D8944A93424CD0E0
:10561000924A934263D8924A934246D0904A934228
:105620005DD8122B2AD8122B59D801A252F823F098
:10563000AB5600088556000897560008D956000852
:10564000DF560008DF560008DF560008DF56000866
:10565000DF560008DF560008DF560008DF56000856
:10566000DF560008DF560008DF560008DF56000846
:10567000DF5600088D560008A1560008794A93426B
:1056800013D02CE03B68DB683B6229E03B68DB68B9
:1056900004333B6224E03B68DB6808333B621FE075
:1056A0003B68DB680C333B621AE03B689B68002B6D
:1056B00002D104233B6213E03B689B68012B05D1B8
:1056C00008233B627B68FA691A6109E008233B62A0
:1056D0007B68FA695A6103E000233B6200E000BF87
:1056E000BB69FF2B01D87B6801E07B6804337B61D9
:1056F000BB69FF2B02D87B6A9B0002E07B6A083BF8
:105700009B003B617B691A680F213B6901FA03F337
:10571000DB431A40396A3B6901FA03F31A437B6998
:105720001A603B685B6803F08053002B00F0B18087
:105730004D4B9B694C4A43F0010393614A4B9B6973
:1057400003F00103BB60BB68484A7B6A9B080233D5
:1057500052F82330FB607B6A03F003039B000F22A7
:1057600002FA03F3DB43FA681340FB607B68404AAC
:10577000934213D07B683F4A93420DD07B683E4AE8
:10578000934207D07B683D4A934201D1032306E050
:10579000042304E0022302E0012300E000237A6AEC
:1057A00002F0030292009340FA681343FB602F4912
:1057B0007B6A9B080233FA6841F823203B685B68E8
:1057C00003F48013002B06D02D4B9A682C49BB693B
:1057D00013438B6006E02A4B9A68BB69DB43284978
:1057E00013408B603B685B6803F40013002B06D00A
:1057F000234BDA682249BB691343CB6006E0204B98
:10580000DA68BB69DB431E491340CB603B685B68C9
:1058100003F40033002B06D0194B5A681849BB69B2
:1058200013434B6006E0164B5A68BB69DB431449CF
:1058300013404B603B685B6803F48033002B21D03E
:105840000F4B1A680E49BB6913430B6021E000BF80
:105850000000321000003110000022100000211062
:105860000000121000001110001002400000014062
:1058700000080140000C01400010014000140140EC
:10588000000401400B4B1A68BB69DB430949134014
:105890000B607B6A01337B623B681A687B6A22FA81
:1058A00003F3002B7FF48EAE00BF00BF2C37BD4644
:1058B00080BC70470004014080B483B000AF7860C2
:1058C0000B467B8013467B707B78002B03D07A8855
:1058D0007B681A6103E07B881A047B681A6100BF49
:1058E0000C37BD4680BC704780B586B000AF78608D
:1058F0007B68002B01D101236CE27B681B6803F0FD
:105900000103002B00F08780924B5B6803F00C03CF
:10591000042B0CD08F4B5B6803F00C03082B12D1C7
:105920008C4B5B6803F48033B3F5803F0BD1894B1C
:105930001B6803F40033002B6CD07B685B68002B82
:1059400068D1012346E27B685B68B3F5803F06D1EE
:10595000804B1B687F4A43F4803313602EE07B68E2
:105960005B68002B0CD17B4B1B687A4A23F4803395
:105970001360784B1B68774A23F4802313601DE083
:105980007B685B68B3F5A02F0CD1724B1B68714A22
:1059900043F4802313606F4B1B686E4A43F48033DB
:1059A00013600BE06B4B1B686A4A23F4803313606F
:1059B000684B1B68674A23F4802313607B685B682D
:1059C000002B13D0FFF706FC386108E0FFF702FC5C
:1059D00002463B69D31A642B01D90323FAE15D4BDC
:1059E0001B6803F40033002BF0D014E0FFF7F2FB48
:1059F000386108E0FFF7EEFB02463B69D31A642BDF
:105A000001D90323E6E1534B1B6803F40033002B59
:105A1000F0D100E000BF7B681B6803F00203002B9D
:105A200063D04C4B5B6803F00C03002B0BD0494B4D
:105A30005B6803F00C03082B1CD1464B5B6803F436
:105A40008033002B16D1434B1B6803F00203002B5D
:105A500005D07B681B69012B01D00123BAE13D4BC6
:105A60001B6823F0F8027B685B69DB00394913434C
:105A70000B603AE07B681B69002B20D0364B01227B
:105A80001A60FFF7A7FB386108E0FFF7A3FB0246A7
:105A90003B69D31A022B01D903239BE12D4B1B68D1
:105AA00003F00203002BF0D02A4B1B6823F0F8020E
:105AB0007B685B69DB00274913430B6015E0264BCD
:105AC00000221A60FFF786FB386108E0FFF782FBCF
:105AD00002463B69D31A022B01D903237AE11D4BFD
