:020000040800F2
:1000000000500020E5560008CD540008D3540008E5
:10001000D9540008DF540008E5540008000000002F
:10002000000000000000000000000000EB54000889
:10003000F754000800000000035500080F550008A1
:100040002D5700082D5700082D5700082D57000880
:100050002D5700082D5700082D5700082D57000870
:100060002D5700082D5700082D5700082D57000860
:100070002D5700082D5700082D5700082D57000850
:100080002D5700082D5700082D5700082D57000840
:100090002D5700082D5700082D5700082D57000830
:1000A0002D5700081D5500082D5700082D57000832
:1000B0002D5700082D5700082D5700082D57000810
:1000C0002D5700082D5700082D5700082D57000800
:1000D0002D570008315500082D57000845550008D8
:1000E0002D5700082D5700082D570008000000006C
:1000F0000000000000000000000000000000000000
:0C01000000000000000000005FF808F1A3
:1001100010B5054C237833B9044B13B10448AFF341
:1001200000800123237010BDE801002000000000C2
:100130007803010808B5034B1BB103490348AFF32B
:10014000008008BD00000000EC01002078030108D9
:10015000034613F8012B002AFBD1181A0138704707
:1001600081F0004102E000BF83F0004330B54FEA68
:1001700041044FEA430594EA050F08BF90EA020FD5
:100180001FBF54EA000C55EA020C7FEA645C7FEA68
:10019000655C00F0E2804FEA5454D4EB5555B8BF8B
:1001A0006D420CDD2C4480EA020281EA030382EAFC
:1001B000000083EA010180EA020281EA0303362D8E
:1001C00088BF30BD11F0004F4FEA01314FF4801C61
:1001D0004CEA113102D0404261EB410113F0004F73
:1001E0004FEA03334CEA133302D0524263EB43032A
:1001F00094EA050F00F0A780A4F10104D5F1200EC8
:100200000DDB02FA0EFC22FA05F2801841F1000122
:1002100003FA0EF2801843FA05F359410EE0A5F1F6
:1002200020050EF1200E012A03FA0EFC28BF4CF027
:10023000020C43FA05F3C01851EBE37101F00045DD
:1002400007D54FF0000EDCF1000C7EEB00006EEBEA
:100250000101B1F5801F1BD3B1F5001F0CD3490874
:100260005FEA30004FEA3C0C04F101044FEA4452CB
:1002700012F5800F80F09A80BCF1004F08BF5FEA52
:10028000500C50F1000041EB045141EA050130BD32
:100290005FEA4C0C404141EB0101013C28BFB1F544
:1002A000801FE9D291F0000F04BF01460020B1FA8F
:1002B00081F308BF2033A3F10B03B3F120020CDA62
:1002C0000C3208DD02F1140CC2F10C0201FA0CF040
:1002D00021FA02F10CE002F11402D8BFC2F1200CA5
:1002E00001FA02F120FA0CFCDCBF41EA0C0190405B
:1002F000E41AA2BF01EB0451294330BD6FEA0404A4
:100300001F3C1CDA0C340EDC04F11404C4F120028E
:1003100020FA04F001FA02F340EA030021FA04F3A0
:1003200045EA030130BDC4F10C04C4F1200220FAF7
:1003300002F001FA04F340EA0300294630BD21FA35
:1003400004F0294630BD94F0000F83F4801306BFFB
:1003500081F480110134013D4EE77FEA645C18BFEF
:100360007FEA655C29D094EA050F08BF90EA020F86
:1003700005D054EA000C04BF1946104630BD91EA7E
:10038000030F1EBF0021002030BD5FEA545C05D181
:100390004000494128BF41F0004130BD14F58004C0
:1003A0003CBF01F5801130BD01F0004545F0FE4134
:1003B00041F470014FF0000030BD7FEA645C1ABF69
:1003C000194610467FEA655C1CBF0B46024650EAA0
:1003D000013406BF52EA033591EA030F41F40021CC
:1003E00030BD00BF90F0000F04BF0021704730B552
:1003F0004FF4806404F132044FF000054FF0000127
:1004000050E700BF90F0000F04BF0021704730B5E7
:100410004FF4806404F1320410F0004548BF4042BC
:100420004FF000013EE700BF42004FEAE2014FEA11
:1004300031014FEA02701FBF12F07F4393F07F4FEC
:1004400081F06051704732F07F4208BF704793F0EF
:100450007F4F04BF41F40021704730B54FF4607402
:1004600001F0004521F000411CE700BF50EA010205
:1004700008BF704730B54FF000050AE050EA0102AE
:1004800008BF704730B511F0004502D5404261EB1E
:1004900041014FF4806404F132045FEA915C3FF45F
:1004A000D8AE4FF003025FEADC0C18BF03325FEAFC
:1004B000DC0C18BF033202EBDC02C2F1200300FAAD
:1004C00003FC20FA02F001FA03FE40EA0E0021FAD2
:1004D00002F11444BDE600BF70B54FF0FF0C4CF4C0
:1004E000E06C1CEA11541DBF1CEA135594EA0C0F72
:1004F00095EA0C0F00F0DEF82C4481EA030621EAAD
:100500004C5123EA4C5350EA013518BF52EA0335E7
:1005100041F4801143F4801338D0A0FB02CE4FF099
:100520000005E1FB02E506F00042E0FB03E54FF0C9
:100530000006E1FB03569CF0000F18BF4EF0010EC1
:10054000A4F1FF04B6F5007F64F5407404D25FEABD
:100550004E0E6D4146EB060642EAC62141EA555170
:100560004FEAC52040EA5E504FEACE2EB4F1FD0CB2
:1005700088BFBCF5E06F1ED8BEF1004F08BF5FEA30
:10058000500E50F1000041EB045170BD06F00046E2
:1005900046EA010140EA020081EA0301B4EB5C048F
:1005A000C2BFD4EB0C0541EA045170BD41F4801187
:1005B0004FF0000E013C00F3AB8014F1360FDEBFAC
:1005C000002001F0004170BDC4F10004203C35DA88
:1005D0000C341BDC04F11404C4F1200500FA05F30B
:1005E00020FA04F001FA05F240EA020001F00042AC
:1005F00021F0004110EBD37021FA04F642EB060122
:100600005EEA430E08BF20EAD37070BDC4F10C044B
:10061000C4F1200500FA04F320FA05F001FA04F20F
:1006200040EA020001F0004110EBD37041F10001FB
:100630005EEA430E08BF20EAD37070BDC4F1200506
:1006400000FA05F24EEA020E20FA04F301FA05F26E
:1006500043EA020321FA04F001F0004121FA04F216
:1006600020EA020000EBD3705EEA430E08BF20EAE6
:10067000D37070BD94F0000F0FD101F00046400020
:1006800041EB010111F4801F08BF013CF7D041EAA2
:10069000060195F0000F18BF704703F000465200A6
:1006A00043EB030313F4801F08BF013DF7D043EA77
:1006B0000603704794EA0C0F0CEA135518BF95EA2D
:1006C0000C0F0CD050EA410618BF52EA4306D1D1B4
:1006D00081EA030101F000414FF0000070BD50EAD3
:1006E000410606BF1046194652EA430619D094EA5D
:1006F0000C0F02D150EA013613D195EA0C0F05D147
:1007000052EA03361CBF104619460AD181EA03019A
:1007100001F0004141F0FE4141F470014FF0000052
:1007200070BD41F0FE4141F4780170BD70B54FF0ED
:10073000FF0C4CF4E06C1CEA11541DBF1CEA13556D
:1007400094EA0C0F95EA0C0F00F0A7F8A4EB05044F
:1007500081EA030E52EA03354FEA013100F0888046
:100760004FEA03334FF0805545EA131343EA12630F
:100770004FEA022245EA111545EA10654FEA0026C4
:100780000EF000419D4208BF964244F1FD0404F57D
:10079000407402D25B084FEA3202B61A65EB0305D9
:1007A0005B084FEA32024FF480104FF4002CB6EB96
:1007B000020E75EB030E22BFB61A754640EA0C0016
:1007C0005B084FEA3202B6EB020E75EB030E22BF56
:1007D000B61A754640EA5C005B084FEA3202B6EB97
:1007E000020E75EB030E22BFB61A754640EA9C0056
:1007F0005B084FEA3202B6EB020E75EB030E22BF26
:10080000B61A754640EADC0055EA060E18D04FEAE3
:10081000051545EA16754FEA06164FEAC30343EA83
:1008200052734FEAC2025FEA1C1CC0D111F4801F50
:100830000BD141EA00014FF000004FF0004CB6E749
:1008400011F4801F04BF01430020B4F1FD0C88BFE8
:10085000BCF5E06F3FF6AFAEB5EB030C04BFB6EBF3
:10086000020C5FEA500C50F1000041EB045170BDE6
:100870000EF0004E4EEA113114EB5C04C2BFD4EB13
:100880000C0541EA045170BD41F480114FF0000E97
:10089000013C90E645EA060E8DE60CEA135594EA13
:1008A0000C0F08BF95EA0C0F3FF43BAF94EA0C0F16
:1008B0000AD150EA01347FF434AF95EA0C0F7FF48B
:1008C00025AF104619462CE795EA0C0F06D152EADF
:1008D00003353FF4FDAE1046194622E750EA4106C3
:1008E00018BF52EA43067FF4C5AE50EA41047FF4D4
:1008F0000DAF52EA43057FF4EBAE12E74FF0FF3C39
:1009000006E000BF4FF0010C02E000BF4FF0010C09
:100910004DF804CD4FEA410C7FEA6C5C4FEA430C82
:1009200018BF7FEA6C5C1BD001B050EA410C0CBFD1
:1009300052EA430C91EA030F02BF90EA020F002033
:10094000704710F1000F91EA030F58BF994208BF9A
:1009500090422CBFD8176FEAE37040F00100704757
:100960004FEA410C7FEA6C5C02D150EA013C07D1AE
:100970004FEA430C7FEA6C5CD6D152EA033CD3D0F9
:100980005DF8040B704700BF8446104662468C46F3
:100990001946634600E000BF01B5FFF7B7FF002826
:1009A00048BF10F1000F01BD4DF808EDFFF7F4FF4F
:1009B0000CBF012000205DF808FB00BF4DF808EDDA
:1009C000FFF7EAFF34BF012000205DF808FB00BFFD
:1009D0004DF808EDFFF7E0FF94BF012000205DF81F
:1009E00008FB00BF4DF808EDFFF7CEFF94BF0120D4
:1009F00000205DF808FB00BF4DF808EDFFF7C4FFCD
:100A000034BF012000205DF808FB00BF4FEA410C15
:100A10007FEA6C5C02D150EA013C0AD14FEA430CF8
:100A20007FEA6C5C02D152EA033C02D14FF0000035
:100A300070474FF0010070474FEA410212F5001273
:100A400015D211D56FF47873B3EB625212D94FEA15
:100A5000C12343F0004343EA505311F0004F23FAFF
:100A600002F018BF404270474FF00000704750EA54
:100A7000013005D111F0004008BF6FF00040704711
:100A80004FF00000704700BF4A0011D212F500126B
:100A900011D20DD56FF47873B3EB62520ED44FEAD6
:100AA000C12343F0004343EA505323FA02F0704756
:100AB0004FF00000704750EA013002D14FF0FF3094
:100AC00070474FF0000070474FEA4102B2F1E04337
:100AD00024BFB3F5001CDCF1FE5C0DD901F0004C25
:100AE0004FEAC0024CEA5070B2F1004F40EB830075
:100AF00008BF20F00100704711F0804F21D113F1A1
:100B00003872BCBF01F00040704741F480114FEAD9
:100B10005252C2F11802C2F1200C10FA0CF320FA62
:100B200002F018BF40F001004FEAC1234FEAD3237F
:100B300003FA0CFC40EA0C0023FA02F34FEA4303E9
:100B4000CCE77FEA625307D150EA01331EBF4FF072
:100B5000FE4040F44000704701F0004040F0FE408D
:100B600040F40000704700BF80F0004002E000BF8A
:100B700081F0004142001FBF5FEA410392EA030F88
:100B80007FEA226C7FEA236C6AD04FEA1262D2EBD2
:100B90001363C1BFD218414048404140B8BF5B42D7
:100BA000192B88BF704710F0004F40F4000020F070
:100BB0007F4018BF404211F0004F41F4000121F086
:100BC0007F4118BF494292EA030F3FD0A2F10102D0
:100BD00041FA03FC10EB0C00C3F1200301FA03F10E
:100BE00000F0004302D5494260EB4000B0F5000F31
:100BF00013D3B0F1807F06D340084FEA310102F1F0
:100C00000102FE2A51D2B1F1004F40EBC25008BFA1
:100C100020F0010040EA03007047490040EB00006B
:100C2000013A28BFB0F5000FEDD2B0FA80FCACF16C
:100C3000080CB2EB0C0200FA0CF0AABF00EBC25099
:100C400052421843BCBFD0401843704792F0000F87
:100C500081F4000106BF80F400000132013BB5E7DA
:100C60004FEA41037FEA226C18BF7FEA236C21D050
:100C700092EA030F04D092F0000F08BF08467047B5
:100C800090EA010F1CBF0020704712F07F4F04D183
:100C9000400028BF40F00040704712F100723CBF96
:100CA00000F50000704700F0004343F0FE4040F4C0
:100CB000000070477FEA226216BF08467FEA23637E
:100CC0000146420206BF5FEA412390EA010F40F469
:100CD000800070474FF0000304E000BF10F00043B5
:100CE00048BF40425FEA000C08BF704743F096439C
:100CF00001464FF000001CE050EA010208BF7047B7
:100D00004FF000030AE000BF50EA010208BF70473D
:100D100011F0004302D5404261EB41015FEA010C52
:100D200002BF84460146002043F0B64308BFA3F14A
:100D30008053A3F50003BCFA8CF2083AA3EBC2532C
:100D400010DB01FA02FC634400FA02FCC2F120024B
:100D5000BCF1004F20FA02F243EB020008BF20F082
:100D60000100704702F1200201FA02FCC2F12002E8
:100D700050EA4C0021FA02F243EB020008BF20EADD
:100D8000DC7070474FF0FF0C1CEAD0521EBF1CEA0B
:100D9000D15392EA0C0F93EA0C0F6FD01A4480EAF9
:100DA000010C400218BF5FEA41211ED04FF00063E2
:100DB00043EA501043EA5111A0FB01310CF000400E
:100DC000B1F5000F3EBF490041EAD3715B0040EA34
:100DD000010062F17F02FD2A1DD8B3F1004F40EB04
:100DE000C25008BF20F00100704790F0000F0CF0D7
:100DF000004C08BF49024CEA502040EA51207F3A9B
:100E0000C2BFD2F1FF0340EAC250704740F4000075
:100E10004FF00003013A5DDC12F1190FDCBF00F066
:100E200000407047C2F10002410021FA02F1C2F114
:100E3000200200FA02FC5FEA310040F1000053EAB0
:100E40004C0308BF20EADC70704792F0000F00F0FE
:100E5000004C02BF400010F4000F013AF9D040EA04
:100E60000C0093F0000F01F0004C02BF490011F498
:100E7000000F013BF9D041EA0C018FE70CEAD15396
:100E800092EA0C0F18BF93EA0C0F0AD030F0004C16
:100E900018BF31F0004CD8D180EA010000F00040CA
:100EA000704790F0000F17BF90F0004F084691F088
:100EB000000F91F0004F14D092EA0C0F01D14202C2
:100EC0000FD193EA0C0F03D14B0218BF084608D18B
:100ED00080EA010000F0004040F0FE4040F40000D5
:100EE000704740F0FE4040F4400070474FF0FF0C68
:100EF0001CEAD0521EBF1CEAD15392EA0C0F93EAAF
:100F00000C0F69D0A2EB030280EA010C49024FEA00
:100F1000402037D04FF0805343EA111143EA1013B9
:100F20000CF000408B4238BF5B0042F17D024FF471
:100F3000000C8B4224BF5B1A40EA0C00B3EB510F4C
:100F400024BFA3EB510340EA5C00B3EB910F24BF35
:100F5000A3EB910340EA9C00B3EBD10F24BFA3EBBA
:100F6000D10340EADC001B0118BF5FEA1C1CE0D182
:100F7000FD2A3FF650AF8B4240EBC25008BF20F035
:100F8000010070470CF0004C4CEA50207F32C2BF89
:100F9000D2F1FF0340EAC250704740F400004FF026
:100FA0000003013A37E792F0000F00F0004C02BF57
:100FB000400010F4000F013AF9D040EA0C0093F021
:100FC000000F01F0004C02BF490011F4000F013B7B
:100FD000F9D041EA0C0195E70CEAD15392EA0C0FE3
:100FE00008D142027FF47DAF93EA0C0F7FF470AF1B
:100FF000084676E793EA0C0F04D14B023FF44CAF5E
:1010000008466EE730F0004C18BF31F0004CCAD1F2
:1010100030F000427FF45CAF31F000437FF43CAF2E
:101020005FE700BF4FF0FF3C06E000BF4FF0010C50
:1010300002E000BF4FF0010C4DF804CD4FEA400232
:101040004FEA41037FEA226C18BF7FEA236C11D07C
:1010500001B052EA530C18BF90EA010F58BFB2EB2F
:10106000030088BFC81738BF6FEAE17018BF40F0AF
:10107000010070477FEA226C02D15FEA402C05D163
:101080007FEA236CE4D15FEA412CE1D05DF8040BE8
:10109000704700BF844608466146FFE70FB5FFF77B
:1010A000C9FF002848BF10F1000F0FBD4DF808ED33
:1010B000FFF7F4FF0CBF012000205DF808FB00BF24
:1010C0004DF808EDFFF7EAFF34BF012000205DF87E
:1010D00008FB00BF4DF808EDFFF7E0FF94BF0120CB
:1010E00000205DF808FB00BF4DF808EDFFF7D2FFC8
:1010F00094BF012000205DF808FB00BF4DF808ED0B
:10110000FFF7C8FF34BF012000205DF808FB00BFD7
:101110004FEA40024FEA41037FEA226C02D15FEAC4
:10112000402C08D17FEA236C02D15FEA412C02D126
:101130004FF0000070474FF0010070474FEA400247
:10114000B2F1FE4F0FD34FF09E03B3EB12620DD9F5
:101150004FEA002343F0004310F0004F23FA02F05F
:1011600018BF404270474FF00000704712F1610F06
:1011700001D1420205D110F0004008BF6FF00040DD
:1011800070474FF00000704742000ED2B2F1FE4FA0
:101190000BD34FF09E03B3EB126209D44FEA002346
:1011A00043F0004323FA02F070474FF0000070470D
:1011B00012F1610F01D1420202D14FF0FF307047AE
:1011C0004FF00000704700BF38B50C460546214679
:1011D000284600220023FFF7F1FB28B928462146C4
:1011E000BDE8384000F00AB8284604F1004100F09C
:1011F00005F8404261EB410138BD00BFD0B5002287
:101200000B4B06460F46FFF767F9FFF73DFC044618
:10121000FFF7E8F80022074BFFF75EF902460B469E
:1012200030463946FEF7A0FFFFF72EFC2146D0BD21
:101230000000F03D0000F0410FB480B582B000AF77
:1012400007F114033B603B683A6964210A4809F0DE
:101250000DFE094800F014F878607B689AB24FF4EC
:101260007A730549054806F0B7FF00BF0837BD4649
:10127000BDE8804004B07047040200201C05002037
:1012800080B485B000AF78600023FB6002E0FB68AB
:101290000133FB607B685A1C7A601B78002BF6D107
:1012A000FB6818461437BD4680BC7047000000003C
:1012B00084B0B0B592B000AF07F1580484E80F00D5
:1012C000D7F88C301846FFF7AFF8ABA3D3E900236B
:1012D000FFF702F902460B4610461946FFF7F4FBEA
:1012E000034618460CF05AFC7864D7F88C30184640
:1012F000FFF79AF8A0A3D3E90023FFF7EDF8024621
:101300000B4610461946FFF7DFFB034618460CF064
:101310000DFC3864D7F890301846FFF785F896A38F
:10132000D3E90023FFF7D8F802460B4610461946CA
:10133000FFF7CAFB034618460CF030FCF863D7F8F9
:1013400090301846FFF770F88BA3D3E90023FFF71E
:10135000C3F802460B4610461946FFF7B5FB034695
:1013600018460CF0E3FBB8637C6EBB6E796C1846D4
:10137000FFF708FD03461D46FB6E396C1846FFF764
:1013800001FD034619462846FFF7F4FB0346F96BB7
:101390001846FFF7F7FC034619462046FFF7EAFB1D
:1013A00003467B63BB6E396C1846FFF7EBFC0346C4
:1013B0001C46FB6E796C1846FFF7E4FC03461946A1
:1013C0002046FFF7D5FB03463B63BB6E796C18469E
:1013D000FFF7D8FC03461C46FB6E396C1846FFF736
:1013E000D1FC034619462046FFF7C4FB0346B96B00
:1013F0001846FFF77BFD0346FB627B6BBB623B6BD2
:101400007B62FB6A3B62B86AFFF70EF802460B4646
:101410005B48FFF711FF786AFFF706F802460B46B4
:101420005848FFF709FF386AFEF7FEFF02460B46F1
:101430005548FFF701FFB96A4FF07C50FFF798FB62
:1014400003461A46514B1A60796A4FF07C50FFF7F9
:101450008FFB03461A464D4B5A60396A4FF07C5059
:10146000FFF786FB03461A46484B9A60474B1B68BA
:1014700023F0004346491846FFF740FE0346002B81
:1014800016D1424B5B6823F0004341491846FFF7F1
:1014900035FE0346002B0BD13C4B9B6823F00043E9
:1014A0003B491846FFF72AFE0346002B00F02B812C
:1014B0003B6FFB617B6FBB61BB6F7B61F869FEF7C4
:1014C000B3FF02460B463348FFF7B6FEB869FEF796
:1014D000ABFF02460B463048FFF7AEFE7869FEF7D9
:1014E000A3FF02460B462D48FFF7A6FE7969786AEE
:1014F000FFF748FC03461C46B969386AFFF742FC0F
:10150000034619462046FFF733FB03463B61F96962
:10151000386AFFF737FC03461C467969B86AFFF75B
:1015200031FC034619462046FFF722FB0346FB60C9
:10153000B969B86AFFF726FC03461C46F969786A60
:10154000FFF720FC034619462046FFF711FB034630
:10155000BB601348FFF770FE12493869FFF712FCB1
:1015600003461A46104B1A600E49F868FFF70AFC4A
:1015700003461A461AE000BF11E226A246DF913F59
:10158000EC030108FC0301080C040108940200208C
:10159000CDCC4C3E1C0401082C0401083C0401087D
:1015A0004C040108CDCCCCBDA00200206E4B5A608B
:1015B0006E49B868FFF7E6FB03461A466A4B9A6025
:1015C000694B1B681846FEF72FFF02460B4668481A
:1015D000FFF732FE644B5B681846FEF725FF0246B4
:1015E0000B466448FFF728FE5F4B9B681846FEF7E2
:1015F0001BFF02460B466048FFF71EFE56A3D3E9C9
:1016000000235E48FFF718FE55A3D3E900235C488A
:10161000FFF712FE544B5B4A5A60534B594A9A608B
:10162000594B7B60504B5B6856491846FFF75EFC90
:10163000034655491846FFF7A5FB03461A464A4B91
:10164000DA60494B9B684F491846FFF74FFC034649
:101650004D491846FFF796FB03461A46424B1A615E
:10166000414BDB6879681846FFF740FC03461A4691
:101670003D4B5A613C4B1B6979681846FFF736FCB5
:1016800003461A46384B9A614048FFF7D5FD364B62
:10169000DB681846FEF7C8FE02460B463C48FFF7DB
:1016A000CBFD314B1B691846FEF7BEFE02460B46CA
:1016B0003848FFF7C1FD3848FFF7BEFD374805F051
:1016C0000BFE294B5B684FF000011846FFF7F8FC52
:1016D0000346002B0BD0244BDB6823F00043184655
:1016E000FFF752FD0346184600F0BCF808E01E4B19
:1016F000DB681846FFF722FD0346184600F09AF80B
:101700002748FFF799FD184B9B684FF000011846DA
:10171000FFF7D6FC0346002B0BD0134B1B6923F0BD
:1017200000431846FFF730FD0346184600F06AF8FC
:1017300009E00D4B1B691846FFF700FD03461846EC
:1017400000F048F800BF4837BD46BDE8B04004B0DF
:10175000704700BFAFF30080000000A09999C93F17
:10176000000000000020DC40A0020020CDCCCCBD59
:10177000680401087C04010890040108A40401081D
:10178000C0040108CDCC4C3E0000E146DC04010859
:10179000F4040108040501081405010828060020C6
:1017A0003405010880B500AF01220821024804F089
:1017B00089FB00BF80BD00BF000C014080B500AFB9
:1017C00000220821024804F07DFB00BF80BD00BF5D
:1017D000000C014080B582B000AF7860074A7B689A
:1017E0005363064B00229A63FFF7DCFF0021044895
:1017F00005F042FE00BF0837BD4680BD0004004032
:101800006804002080B582B000AF7860074B0022EA
:101810005A63064A7B689363FFF7C4FF04210448B8
:1018200005F02AFE00BF0837BD4680BD0004004019
:101830006804002080B582B000AF7860074B0022BA
:10184000DA63064A7B681364FFF7ACFF0C21044897
:1018500005F012FE00BF0837BD4680BD00080040FD
:10186000A803002080B582B000AF7860074A7B688B
:10187000D363064B00221A64FFF794FF0821044843
:1018800005F0FAFD00BF0837BD4680BD00080040E6
:10189000A803002080B485B000AFF860B9607A601A
:1018A0003B60FB684FF000021A60FB684FF00002DB
:1018B0005A60BB681A68FB689A60FB684FF00002C8
:1018C000DA60FB684FF000021A61BB685A68FB6877
:1018D0005A617B681A68FB689A617B685A68FB6882
:1018E000DA613B681A68FB681A623B685A68FB68F1
:1018F0005A623B689A68FB689A6200BF1437BD461B
:1019000080BC704790B593B000AFF860B9607A6062
:101910003B60FB681B6818460CF040F97864FB6874
:101920001B6818460CF002F93864FB685B681846BF
:101930000CF06AF9F863796C7868FFF723FA0346CC
:101940001C46396C3868FFF71DFA034619462046D5
:10195000FFF710F90346F96B1846FFF713FA034631
:101960001946B868FFF706F90346BB63396C786817
:10197000FFF708FA03461C46796C3868FFF702FA4D
:10198000034619462046FFF7F3F803467B63FB68DE
:101990001C68B96BB86DFFF7F5F903461946204688
:1019A000FFF7E8F803461A46FB681A60FB685C68B4
:1019B000796BB86DFFF7E6F9034619462046FFF745
:1019C000D9F803461A46FB685A60FB681B6818463C
:1019D0000CF0E4F87864FB681B6818460CF0A6F875
:1019E0003864FB685B6818460CF00EF9F863FB6816
:1019F0005B6818460CF09AF8034619464FF07E5083
:101A0000FFF774FA03463B63396C7868FFF7BAF95D
:101A100003461C46796C3868FFF7B4F9034619464B
:101A20002046FFF7A5F80346F96B1846FFF7AAF919
:101A300003463B62796C7868FFF7A4F903461C46BD
:101A4000396C3868FFF79EF9034619462046FFF7C0
:101A500091F80346396B1846FFF794F90346396B42
:101A60001846FFF78FF903467B62796C7868FFF7B9
:101A700089F903461C46396C3868FFF783F9034639
:101A800019462046FFF776F8034683F00043BB6211
:101A90004FF00003FB623A6AFB689B6819461046E8
:101AA000FFF770F903461C467A6AFB681B69194602
:101AB0001046FFF767F9034619462046FFF75AF824
:101AC00003461C46FB689B683A6A11461846FFF7B6
:101AD00059F9034619462046FFF74CF803461C46C1
:101AE000FB68DB68BA6A11461846FFF74BF90346F4
:101AF00019462046FFF73EF803461A46FB689B69E5
:101B000019461046FFF736F803463B613A6AFB6810
:101B1000DB6819461046FFF735F903461C467A6A1A
:101B2000FB685B6919461046FFF72CF90346194616
:101B30002046FFF71FF803461C46FB689B687A6A3D
:101B400011461846FFF71EF9034619462046FFF7CF
:101B500011F803467B61BA6AFB689B681946104618
:101B6000FFF710F903461C46FB681B693A6A1146E9
:101B70001846FFF707F9034619462046FEF7FAFF15
:101B800003461C46FB685B69BA6A11461846FFF7B4
:101B9000F9F8034619462046FEF7ECFF0346BB6101
:101BA000BA6AFB68DB6819461046FFF7EBF8034694
:101BB0001C46FB681B697A6A11461846FFF7E2F873
:101BC000034619462046FEF7D5FF03461A46FB6832
:101BD000DB6919461046FEF7CDFF0346FB61FB6843
:101BE0009C683B69B96D1846FFF7CCF80346194667
:101BF0002046FEF7BFFF03461A46FB689A60FB6863
:101C0000DC687B69B96D1846FFF7BCF803461946D6
:101C10002046FEF7AFFF03461A46FB68DA60FB6812
:101C20001C69BB69B96D1846FFF7ACF80346194645
:101C30002046FEF79FFF03461A46FB681A61FB68C1
:101C40005C69FB69B96D1846FFF79CF803461946B5
:101C50002046FEF78FFF03461A46FB685A6100BF15
:101C60004C37BD4690BDF0B5C5B000AF07F10C04D0
:101C7000206007F108000160391D0A603A461360D0
:101C800007F1080319681868FFF77CF803461C463B
:101C90003B1D19681868FFF775F80346194620467A
:101CA000FEF768FF03461C463B4619681868FFF7B5
:101CB00069F8034619462046FEF75CFF03461846BE
:101CC0000CF018F8034619464FF07E50FFF70EF956
:101CD0000346C7F8043107F10803D7F80411186860
:101CE000FFF750F80346C7F800313B1DD7F8041141
:101CF0001868FFF747F80346C7F8FC303B46D7F8AB
:101D000004111868FFF73EF80346C7F8F83007F1EA
:101D10000C031B681B6818460BF040FFC7F8F40063
:101D200007F10C031B681B6818460BF0FFFEC7F891
:101D3000F00007F10C031B685B6818460BF02EFFE0
:101D4000C7F8EC0007F10C031B685B6818460BF042
:101D5000EDFEC7F8E8004FF00003C7F8CC30D7F825
:101D6000E830C7F8D030D7F8F03083F00043D7F828
:101D7000E8101846FFF706F80346C7F8D430D7F83E
:101D8000EC10D7F8F400FEF7FDFF0346C7F8D83093
:101D9000D7F8E810D7F8F400FEF7F4FF0346C7F8C9
:101DA000DC30D7F8EC10D7F8F000FEF7EBFF034675
:101DB000C7F8E03007F10C031B68DB68D7F8D020C8
:101DC00011461846FEF7DEFF0346C7F8B43007F1A8
:101DD0000C031B689B68D7F8D42011461846FEF701
:101DE000D1FF03461C4607F10C031B68DB68D7F8DC
:101DF000D82011461846FEF7C5FF0346194620466F
:101E0000FEF7B8FE0346C7F8B83007F10C031B68AD
:101E10009B68D7F8DC2011461846FEF7B3FF03464F
:101E20001C4607F10C031B68DB68D7F8E02011465D
:101E30001846FEF7A7FF034619462046FEF79AFE0E
:101E40000346C7F8BC3007F10C031B685B69D7F881
:101E5000D02011461846FEF795FF0346C7F8C0305C
:101E600007F10C031B681B69D7F8D42011461846EC
:101E7000FEF788FF03461C4607F10C031B685B69ED
:101E8000D7F8D82011461846FEF77CFF03461946BE
:101E90002046FEF76FFE0346C7F8C43007F10C0377
:101EA0001B681B69D7F8DC2011461846FEF76AFF4D
:101EB00003461C4607F10C031B685B69D7F8E0205A
:101EC00011461846FEF75EFF034619462046FEF708
:101ED00051FE0346C7F8C830D7F8D030D7F8C02035
:101EE00011461846FEF74EFF03461A4607F10C034B
:101EF0001B681B6A19461046FEF73CFE0346C7F8EE
:101F00009030D7F8D030D7F8C42011461846FEF7E5
:101F100039FF0346C7F89430D7F8D030D7F8C82037
:101F200011461846FEF72EFF0346C7F89830D7F83B
:101F3000D430D7F8B42011461846FEF723FF0346E5
:101F40001C46D7F8D830D7F8C02011461846FEF7FF
:101F500019FF034619462046FEF70CFE0346C7F854
:101F60009C30D7F8D430D7F8B82011461846FEF781
:101F700009FF03461C46D7F8D830D7F8C4201146CD
:101F80001846FEF7FFFE034619462046FEF7F2FD0F
:101F900003461A4607F10C031B685B6A1946104694
:101FA000FEF7E8FD0346C7F8A030D7F8D430D7F8DD
:101FB000BC2011461846FEF7E5FE03461C46D7F83E
:101FC000D830D7F8C82011461846FEF7DBFE034686
:101FD00019462046FEF7CEFD0346C7F8A430D7F8D1
:101FE000DC30D7F8B42011461846FEF7CBFE034686
:101FF0001C46D7F8E030D7F8C02011461846FEF747
:10200000C1FE034619462046FEF7B4FD0346C7F855
:10201000A830D7F8DC30D7F8B82011461846FEF7BC
:10202000B1FE03461C46D7F8E030D7F8C42011466D
:102030001846FEF7A7FE034619462046FEF79AFD0E
:102040000346C7F8AC30D7F8DC30D7F8BC201146CF
:102050001846FEF797FE03461C46D7F8E030D7F83F
:10206000C82011461846FEF78DFE03461946204645
:10207000FEF780FD03461A4607F10C031B689B6AB6
:1020800019461046FEF776FD0346C7F8B030D7F87C
:102090009040D7F8B030D7F8A02011461846FEF788
:1020A00071FE03461D46D7F8AC30D7F8A420114680
:1020B0001846FEF767FE034619462846FEF758FD08
:1020C000034619462046FEF75DFE03461D46D7F837
:1020D0009C40D7F8B030D7F8942011461846FEF748
:1020E00051FE03461E46D7F8AC30D7F8982011466B
:1020F0001846FEF747FE034619463046FEF738FD00
:10210000034619462046FEF73DFE0346194628467B
:10211000FEF72EFD03461D46D7F8A840D7F8A43099
:10212000D7F8942011461846FEF72CFE03461E46AB
:10213000D7F8A030D7F8982011461846FEF722FEAF
:10214000034619463046FEF713FD0346194620465E
:10215000FEF718FE034619462846FEF70BFD034618
:1021600019464FF07E50FEF7C1FE0346C7F8E43033
:10217000D7F8B030D7F8A02011461846FEF702FE77
:1021800003461C46D7F8AC30D7F8A42011461846B1
:10219000FEF7F8FD034619462046FEF7E9FC034624
:1021A000FB66D7F8B030D7F8942011461846FEF7F2
:1021B000E9FD03461C46D7F8AC30D7F89820114605
:1021C0001846FEF7DFFD034619462046FEF7D0FC11
:1021D000034683F000433B67D7F8A430D7F8942038
:1021E00011461846FEF7CEFD03461C46D7F8A03030
:1021F000D7F8982011461846FEF7C4FD0346194645
:102200002046FEF7B5FC03467B67D7F8B030D7F819
:102210009C2011461846FEF7B5FD03461C46D7F82C
:10222000A830D7F8A42011461846FEF7ABFD0346A8
:1022300019462046FEF79CFC034683F00043BB672B
:10224000D7F8B030D7F8902011461846FEF79AFD1F
:1022500003461C46D7F8A830D7F8982011461846F0
:10226000FEF790FD034619462046FEF781FC034623
:10227000FB67D7F8A430D7F8902011461846FEF730
:1022800081FD03461C46D7F89C30D7F898201146AC
:102290001846FEF777FD034619462046FEF768FC10
:1022A000034683F00043C7F88030D7F8AC30D7F846
:1022B0009C2011461846FEF765FD03461C46D7F8DC
:1022C000A830D7F8A02011461846FEF75BFD03465C
:1022D00019462046FEF74CFC0346C7F88430D7F871
:1022E000AC30D7F8902011461846FEF74BFD034658
:1022F0001C46D7F8A830D7F8942011461846FEF7A8
:1023000041FD034619462046FEF732FC034683F0A2
:102310000043C7F88830D7F8A030D7F8902011468E
:102320001846FEF72FFD03461C46D7F89C30D7F819
:10233000942011461846FEF725FD0346194620460F
:10234000FEF716FC0346C7F88C300023C7F80C31A3
:1023500034E00023C7F8083127E0D7F80C211346F2
:102360005B001344D7F8082113449B0007F58872DB
:10237000134453F8A43CD7F8E4101846FEF702FDC6
:1023800003461946D7F80C2113465B001344D7F8CF
:10239000082113449B0007F58872134443F8A41CDA
:1023A000D7F808310133C7F80831D7F80831022BC4
:1023B000D3D9D7F80C310133C7F80C31D7F80C3129
:1023C000022BC6D9D7F8D430BA6F11461846FEF79B
:1023D000D9FC03461C46D7F8DC30D7F884201146D8
:1023E0001846FEF7CFFC034619462046FEF7C2FB0F
:1023F00003467B65D7F8D430FA6F11461846FEF7CE
:10240000C1FC03461C46D7F8DC30D7F888201146BB
:102410001846FEF7B7FC034619462046FEF7AAFB0E
:102420000346BB65D7F8D430D7F88020114618464C
:10243000FEF7A8FC03461C46D7F8DC30D7F88C2002
:1024400011461846FEF79EFC034619462046FEF745
:1024500091FB0346FB65D7F8D030FA6E114618465B
:10246000FEF790FC03461C46D7F8D830BA6F1146E9
:102470001846FEF787FC034619462046FEF77AFB0E
:1024800003461C46D7F8E030D7F88420114618469A
:10249000FEF778FC034619462046FEF76BFB034621
:1024A0003B66D7F8D0303A6F11461846FEF76AFC03
:1024B00003461C46D7F8D830FA6F11461846FEF787
:1024C00061FC034619462046FEF754FB03461C46B2
:1024D000D7F8E030D7F8882011461846FEF752FCAE
:1024E000034619462046FEF745FB03467B66D7F8B0
:1024F000D0307A6F11461846FEF744FC03461C465E
:10250000D7F8D830D7F8802011461846FEF73AFCA5
:10251000034619462046FEF72DFB03461C46D7F816
:10252000E030D7F88C2011461846FEF72BFC034606
:1025300019462046FEF71EFB0346BB6607F10C0357
:102540001B689B687A6D11461846FEF71BFC034614
:102550001C4607F10C031B68DB683A6E11461846EF
:10256000FEF710FC034619462046FEF703FB034620
:10257000FB6307F10C031B689B68BA6D1146184694
:10258000FEF700FC03461C4607F10C031B68DB68E2
:102590007A6E11461846FEF7F5FB034619462046AB
:1025A000FEF7E8FA03463B6407F10C031B689B68DF
:1025B000FA6D11461846FEF7E5FB03461C4607F187
:1025C0000C031B68DB68BA6E11461846FEF7DAFB8F
:1025D000034619462046FEF7CDFA03467B6407F111
:1025E0000C031B681B697A6D11461846FEF7CAFB7F
:1025F00003461C4607F10C031B685B693A6E1146E3
:102600001846FEF7BFFB034619462046FEF7B2FA0E
:102610000346BB6407F10C031B681B69BA6D1146C6
:102620001846FEF7AFFB03461C4607F10C031B6878
:102630005B697A6E11461846FEF7A4FB03461946FD
:102640002046FEF797FA0346FB6407F10C031B686C
:102650001B69FA6D11461846FEF794FB03461C46AB
:1026600007F10C031B685B69BA6E11461846FEF74A
:1026700089FB034619462046FEF77CFA03463B6574
:102680003B6CD7F8D42011461846FEF77BFB034677
:102690001C46BB6CD7F8DC2011461846FEF772FBCF
:1026A000034619462046FEF765FA034619464FF0E1
:1026B0007E50FEF75DFA0346FB623B6CD7F8D820EC
:1026C00011461846FEF75EFB03461C46BB6CD7F866
:1026D000E02011461846FEF755FB034619462046F2
:1026E000FEF748FA034683F000433B63FB6CD7F8E0
:1026F000D42011461846FEF745FB03461C463B6DA9
:10270000D7F8DC2011461846FEF73CFB0346194675
:102710002046FEF72FFA034683F000437B63FB6CF1
:10272000D7F8D82011461846FEF72CFB03461C4666
:102730003B6DD7F8E02011461846FEF723FB034611
:1027400019462046FEF716FA034619464FF07E500A
:10275000FEF70EFA0346BB63FA6A07F10C031B6827
:102760009B6819461046FEF70DFB03461C463A6B64
:1027700007F10C031B681B6919461046FEF702FBA4
:10278000034619462046FEF7F5F90346FB61FA6A4F
:1027900007F10C031B68DB6819461046FEF7F2FAD6
:1027A00003461C463A6B07F10C031B685B6919462C
:1027B0001046FEF7E7FA034619462046FEF7DAF917
:1027C00003463B627A6B07F10C031B689B68194652
:1027D0001046FEF7D7FA03461C46BA6B07F10C0306
:1027E0001B681B6919461046FEF7CCFA03461946CA
:1027F0002046FEF7BFF903467B627A6B07F10C03B4
:102800001B68DB6819461046FEF7BCFA03461C46F7
:10281000BA6B07F10C031B685B6919461046FEF79B
:10282000B1FA034619462046FEF7A4F90346BB62F7
:10283000FA6907F10C031B689A603A6A07F10C0306
:102840001B68DA607A6A07F10C031B681A61BA6ABE
:1028500007F10C031B685A6107F10C031B685B68E6
:1028600018460BF09BF9024607F110031A6007F1B6
:102870000C031B685B6818460BF058F9034683F09D
:10288000004407F10C031B681B6818460BF086F91F
:10289000034619462046FEF775FA03461A4607F125
:1028A00010035A6007F10C031B685B6818460BF0B5
:1028B0003DF9034683F0004407F10C031B681B68D5
:1028C00018460BF033F9034619462046FEF75AFA2C
:1028D00003461A4607F110039A60FC6B07F11003D8
:1028E0001B681946D7F80001FEF742F9034619465E
:1028F0002046FEF747FA03461D463C6C07F11003DD
:102900005B681946D7F8FC00FEF732F90346194612
:102910002046FEF737FA034619462846FEF72AF9FD
:1029200003461D467C6C07F110039B681946D7F8D7
:10293000F800FEF71DF9034619462046FEF722FA75
:10294000034619462846FEF715F903461A4607F1CD
:102950000C031B681A60BC6C07F110031B68194656
:10296000D7F80001FEF704F9034619462046FEF7A2
:1029700009FA03461D46FC6C07F110035B68194613
:10298000D7F8FC00FEF7F4F8034619462046FEF798
:10299000F9F9034619462846FEF7ECF803461D46AA
:1029A0003C6D07F110039B681946D7F8F800FEF755
:1029B000DFF8034619462046FEF7E4F903461946B8
:1029C0002846FEF7D7F803461A4607F10C031B68A2
:1029D0005A6000BF07F58A77BD46F0BD80B582B06A
:1029E00000AF78606021134800F0BCFE0346012B65
:1029F00018D11148FEF720FC4FF4FA7002F0FAFEED
:102A0000786800F0C5FA0346012B03D00B48FEF7A7
:102A100013FC0AE00A48FEF70FFC4FF4FA7002F0CC
:102A2000E9FE02E00748FEF707FC00BF0837BD4695
:102A300080BD00BFD40600205005010874050108C0
:102A400098050108BC05010880B500AF3B21484846
:102A500000F010FE03461A46464B1A703C214448CB
:102A600000F008FE03461A46424B5A703D2140488A
:102A700000F000FE03461A463E4B9A703E213C4849
:102A800000F0F8FD03461A463A4BDA703F21384809
:102A900000F0F0FD03461A46364B1A7140213448C7
:102AA00000F0E8FD03461A46324B5A714321304884
:102AB00000F0E0FD03461A462E4B9A7144212C4843
:102AC00000F0D8FD03461A462A4BDA714521284802
:102AD00000F0D0FD03461A46264B1A7246212448C0
:102AE00000F0C8FD03461A46224B5A72472120487F
:102AF00000F0C0FD03461A461E4B9A7248211C483E
:102B000000F0B8FD03461A461A4BDA72282118481D
:102B100000F0D4FD03461A46164B1A7329211448B7
:102B200000F0CCFD03461A46124B5A732A21104876
:102B300000F0C4FD03461A460E4B9A732B210C4835
:102B400000F0BCFD03461A460A4BDA732C210848F4
:102B500000F0B4FD03461A46064B1A742D210448B2
:102B600000F0ACFD03461A46024B5A7400BF80BD0C
:102B7000D4060020C005002080B483B000AF786088
:102B800039607B685B69134A13607B689B69114AF3
:102B900053607B68DB690F4A93607B681B6A0D4A50
:102BA000D3607B685B6A0B4A13617B689B6A094A46
:102BB00053613B689B68074A93613B68DB68054A41
:102BC000D3613B681B69034A136200BF0C37BD46E3
:102BD00080BC7047D40500202DE9B043BAB006AFE1
:102BE00078600023C7F8CC3026E007F19C02D7F8C4
:102BF000CC301B011344A14AA149184601F0DEF86C
:102C000007F16C02D7F8CC301B0113449B4A9D4955
:102C1000184601F0D3F807F13C02D7F8CC301B017D
:102C20001344964A4FF07E51184601F0C7F8D7F882
:102C3000CC300133C7F8CC30D7F8CC30022BD4DD00
:102C4000914B1A6807F19C031146184601F0F0F801
:102C50008D4B5A6807F19C0310331146184601F05A
:102C6000E7F8894B9A6807F19C0320331146184610
:102C700001F0DEF8844BDA6807F16C031146184660
:102C800001F0D6F8804B1A6907F16C031033114636
:102C9000184601F0CDF87C4B5A6907F16C032033DC
:102CA0001146184601F0C4F8774B9A6907F13C03C6
:102CB0001146184601F0BCF8734BDA6907F13C0382
:102CC00010331146184601F0B3F86F4B1A6A07F13A
:102CD0003C0320331146184601F0AAF8D7F8A43077
:102CE000BB60D7F8B430FB60D7F8C4303B617B6F72
:102CF0007B61D7F88430BB61D7F89430FB617B6C83
:102D00003B627B6D7B627B6EBB625F4B1B68BB6013
:102D10005D4B5B68FB605C4B9B683B615A4BDB68BF
:102D20007B61594B1B69BB61574B5B69FB61564B20
:102D30009B693B62544BDB697B62534B1B6ABB62F2
:102D40003B6A3A6A11461846FEF71CF803461C46D1
:102D50007B6A7A6A11461846FEF714F8034619464C
:102D60002046FDF707FF03461C46BB6ABA6A1146B8
:102D70001846FEF707F8034619462046FDF7FAFE07
:102D800003461846FDF750FB02460B46104619460F
:102D90000AF05EFF02460B46C7E90C233B48FEF7EC
:102DA0004BFA3B48FEF748FABB681846FDF73CFB78
:102DB00080468946FB681846FDF736FB04460D46FB
:102DC0003B691846FDF730FB02460B46CDE902236E
:102DD000CDE9004542464B462E48FEF72DFA2E48D7
:102DE000FEF72AFA7B691846FDF71EFB80468946E6
:102DF000BB691846FDF718FB04460D46FB691846EB
:102E0000FDF712FB02460B46CDE90223CDE9004552
:102E100042464B462148FEF70FFA2148FEF70CFACE
:102E20003B6A1846FDF700FB804689467B6A1846D8
:102E3000FDF7FAFA04460D46BB6A1846FDF7F4FAA8
:102E4000D7E90C23CDE90423CDE90201CDE9004502
:102E500042464B461348FEF7EFF97B681D4607F1E3
:102E600008040FCC0FC50FCC0FC594E80F0085E800
:102E70000F007868D037BD46BDE8B0830AD7233C41
:102E80000000A0400000C841D4050020E005010872
:102E900008060108180601083C0601084C0601084E
:102EA000700601087C06010880B584B000AFF860A8
:102EB000B9607A60FFF7C8FDB86800F05DFA78681D
:102EC00000F07AFC7968B868FFF756FEFB68184690
:102ED000FFF782FEF8681037BD4680BD80B582B02E
:102EE00000AFFB1D1A460121752000F005F8FB79A3
:102EF00018460837BD4680BD80B582B000AF034696
:102F00003A60FB710B46BB71B979FB793A68184698
:102F100000F004F800BF0837BD4680BD80B584B01E
:102F200000AF03463A60FB710B46BB71002000F016
:102F30001DF8FB7963F07F03DBB2FB7307F10F0130
:102F400064230122084803F067FCBB799AB264232A
:102F50003968054803F0A4FD012000F007F800BF20
:102F60001037BD4680BD00BFD406002080B582B0BA
:102F700000AF0346FB71FB791A464FF480510348BA
:102F800002F0A0FF00BF0837BD4680BD000C014025
:102F900080B584B000AF7860FFF7A0FFFFF79EFF19
:102FA0000346702B28D16B23FB730023BB73BA7BC2
:102FB000FB7B0121184600F02DF86A23FB731023D8
:102FC000BB73BA7BFB7B0121184600F023F8112369
:102FD000BB73042000F078F87B6893F858301946EA
:102FE000786800F087F87B6893F85930194678685C
:102FF00000F0DCF8012307E0FFF770FF03461946F5
:103000000348FEF719F9002318461037BD4680BD66
:10301000C006010880B582B000AF0346FB710B46C5
:10302000BB7113467B717A1DB979FB79184600F0A4
:1030300007F80A2002F0DEFB00BF0837BD4680BD5E
:1030400080B582B000AF03463A60FB710B46BB719E
:103050000020FFF78BFFFB79184600F017F80AE015
:103060003B681B78184600F011F8BB79013BBB7137
:103070003B6801333B60BB79002BF1D10120FFF7A6
:1030800075FF00BF0837BD4680BD000080B586B023
:1030900002AF0346FB710023FB7307F10F02F91D1A
:1030A0004FF4805300930123064803F012FE0346B9
:1030B000002B01D0FF2300E0FB7B18461037BD46F4
:1030C00080BD00BFD406002080B582B000AF0346AB
:1030D000FB71FB791A4601211D20FFF79BFFFB794D
:1030E0001A4601211A20FFF795FF00BF0837BD4699
:1030F00080BD000080B584B000AF78600B46FB70E7
:103100001C23FB73FB78032B3ED801A252F823F05B
:10311000213100083B310008553100086F310008AB
:103120007B684FF08D42DA600023BB73BA7BFB7B78
:1031300001211846FFF76EFF33E07B684FF08C42A9
:10314000DA600823BB73BA7BFB7B01211846FFF7CB
:1031500061FF26E07B684FF08B42DA601023BB737F
:10316000BA7BFB7B01211846FFF754FF19E07B680F
:103170004FF08A42DA601823BB73BA7BFB7B0121D4
:103180001846FFF747FF0CE07B684FF08C42DA608F
:103190000823BB73BA7BFB7B01211846FFF73AFF7C
:1031A00000BF00BF1037BD4680BD00BF80B584B0F2
:1031B00000AF78600B46FB701B23FB73FB78032B7F
:1031C0003AD801A252F823F0D9310008F1310008B1
:1031D00009320008213200087B681F4A1A61002367
:1031E000BB73BA7BFB7B01211846FFF713FF2FE06F
:1031F0007B681A4A1A610823BB73BA7BFB7B0121E7
:103200001846FFF707FF23E07B68154A1A61102371
:10321000BB73BA7BFB7B01211846FFF7FBFE17E06F
:103220007B68104A1A611823BB73BA7BFB7B0121B0
:103230001846FFF7EFFE0BE07B68084A1A61082387
:10324000BB73BA7BFB7B01211846FFF7E3FE00BF8F
:1032500000BF1037BD4680BD00000343000083421D
:10326000333303423333834180B586B000AF786097
:103270003B21404800F0FEF903463B723C213D48AB
:1032800000F0F8F903467B723D213A4800F0F2F96C
:103290000346BB723E21374800F0ECF90346FB724F
:1032A0003F21344800F0E6F903463B7340213148A2
:1032B00000F0E0F903467B7343212E4800F0DAF971
:1032C0000346BB7344212B4800F0D4F90346FB733B
:1032D0004521284800F0CEF903463B744621254895
:1032E00000F0C8F903467B744721224800F0C2F978
:1032F0000346BB7448211F4800F0BCF90346FB7429
:103300003B7A1B021AB27B7A1BB213431AB27B6858
:103310001A80BB7A1B021AB2FB7A1BB213431AB291
:103320007B685A803B7B1B021AB27B7B1BB2134328
:103330001AB27B689A80BB7B1B021AB2FB7B1BB262
:1033400013431AB27B68DA803B7C1B021AB27B7C87
:103350001BB213431AB27B681A81BB7C1B021AB2E0
:10336000FB7C1BB213431AB27B685A8100BF18372B
:10337000BD4680BDD406002080B582B000AF786025
:10338000786800F005F800BF0837BD4680BD000032
:103390002DE9B04386B004AF78607868FFF764FF2A
:1033A0007B68B3F900301846FDF72CF89EA3D3E9EB
:1033B0000023FCF7D9FE02460B4610461946FDF7DE
:1033C00083FB02467B685A617B68B3F9023018467A
:1033D000FDF718F896A3D3E90023FCF7C5FE0246D3
:1033E0000B4610461946FDF76FFB02467B689A6153
:1033F0007B68B3F904301846FDF704F88EA3D3E9CF
:103400000023FCF7B1FE02460B4610461946FDF7B5
:103410005BFB02467B68DA617B68B3F900301846D3
:10342000FDF75CFC02467B68DB6819461046FDF739
:103430005DFD03461A467B685A617B68B3F902302A
:103440001846FDF74BFC02467B68DB6819461046C0
:10345000FDF74CFD03461A467B689A617B68B3F919
:1034600004301846FDF73AFC02467B68DB681946D3
:103470001046FDF73BFD03461A467B68DA617B6820
:10348000B3F906301846FCF7BDFF6DA3D3E900235E
:10349000FCF76CFE02460B4610461946FDF714FB7E
:1034A00002467B681A627B68B3F908301846FCF75D
:1034B000A9FF65A3D3E90023FCF756FE02460B469D
:1034C00010461946FDF700FB02467B685A627B688E
:1034D000B3F90A301846FCF795FF5DA3D3E9002342
:1034E000FCF744FE02460B4610461946FDF7ECFA7F
:1034F00002467B689A627B681A6A7B681B69194678
:103500001046FDF7F3FC03461846FCF78DFF52A367
:10351000D3E90023FCF7E0FF02460B4610461946AC
:10352000FDF7D2FA02467B681A627B685A6A7B68AA
:103530001B6919461046FDF7D9FC03461846FCF7EF
:1035400073FF45A3D3E90023FCF7C6FF02460B46F1
:1035500010461946FDF7B8FA02467B685A627B6846
:103560009A6A7B681B6919461046FDF7BFFC034643
:103570001846FCF759FF38A3D3E90023FCF7ACFF4A
:1035800002460B4610461946FDF79EFA02467B6836
:103590009A623348FDF750FE3248FDF74DFE7B68D6
:1035A0005B691846FCF740FF804689467B689B694B
:1035B0001846FCF739FF04460D467B68DB69184660
:1035C000FCF732FF02460B46CDE90223CDE9004568
:1035D00042464B462448FDF72FFE2448FDF72CFEBB
:1035E0007B681B6A1846FCF71FFF804689467B688C
:1035F0005B6A1846FCF718FF04460D467B689B6A19
:103600001846FCF711FF02460B46CDE90223CDE92F
:10361000004542464B461648FDF70EFE00BF0837F0
:10362000BD46BDE8B08300BFEFC9C342ADE18040F5
:10363000D9CEF753E395684017D9CEF7D309984010
:10364000A69BC420B0266F401B2FDD2406B171401D
:103650003108AC1C5A64094011E226A246DF913FB2
:10366000DC060108040701081407010838070108EF
:103670004807010880B584B000AF78600B46FB7046
:10368000FB7863F07F03DBB2FB700020FFF76EFC7A
:10369000F91C64230122786803F0BEF807F10F01DA
:1036A00064230122786803F0FBF90120FFF75EFC38
:1036B000FB7B18461037BD4680BD000080B584B046
:1036C00000AF78600B46FB70FB7863F07F03DBB2E2
:1036D000FB70002210210D4802F0F4FBF91C64235A
:1036E0000122786803F098F807F10F0164230122A2
:1036F000786803F0D5F901221021044802F0E2FBBA
:10370000FB7B18461037BD4680BD00BF0008014056
:1037100080B582B000AF78600B46FB701346BB707B
:10372000FB7803F07F03DBB2FB70002210210C4812
:1037300002F0C8FBF91C64230122786803F06CF8DE
:10374000B91C64230122786803F066F80122102175
:10375000034802F0B7FB00BF0837BD4680BD00BF7D
:103760000008014080B584B000AF78600B46FB7064
:103770007423FB73FB7B1A4620217868FFF7C8FF90
:10378000FB781A4621217868FFF7C2FF0023BB733C
:10379000BB7B1A4622217868FFF7BAFF0C237B73A4
:1037A0007B7B1A4623217868FFF7B2FF0123184676
:1037B0001037BD4680BD00002DE9B0438AB006AF8A
:1037C000786028216248FFF779FF03463B72292180
:1037D0005F48FFF773FF03467B722A215C48FFF7BF
:1037E0006DFF0346BB722B215948FFF767FF034665
:1037F000FB722C215648FFF761FF03463B732D21D6
:103800005348FFF75BFF03467B737B7A1B021AB2B8
:103810003B7A1BB213431AB27B681A80FB7A1B02F5
:103820001AB2BB7A1BB213431AB27B685A807B7BF5
:103830001B021AB23B7B1BB213431AB27B689A80FD
:103840007B68B3F900301846FDF748FA0346414952
:103850001846FDF797FA03461A467B689A607B681C
:10386000B3F902301846FDF739FA034639491846CC
:10387000FDF788FA03461A467B68DA607B68B3F97D
:1038800004301846FDF72AFA034632491846FDF778
:1038900079FA03461A467B681A617B689A687B68E6
:1038A0009B6819461046FDF76DFA03461C467B6877
:1038B000DA687B68DB6819461046FDF763FA034651
:1038C00019462046FDF756F903461C467B681A69DF
:1038D0007B681B6919461046FDF754FA03461946E2
:1038E0002046FDF747F903461846FCF79DFD0246C2
:1038F0000B46104619460AF0ABF902460B467968AA
:10390000C1E906237B689B681846FCF78DFD80465D
:1039100089467B68DB681846FCF786FD04460D4641
:103920007B681B691846FCF77FFD7B68D3E906239B
:10393000CDE90423CDE90201CDE9004542464B46DD
:103940000548FDF779FC00BF1037BD46BDE8B083E0
:10395000D406002068916D3D6C07010880B586B0E3
:1039600000AF072200215B4805F002FB5A4B002202
:103970001A7041F6583307225649584804F0B7FCEC
:103980000346002B40F094805548FDF755FC00237A
:103990007B610AE04F4A7B6913441B781946514802
:1039A000FDF74AFC7B6901337B617B69062BF1DD06
:1039B0004D48FDF741FC0023FB71464B1B78FA791B
:1039C0009A4211D100233B610BE03B690133414A2C
:1039D000D15C404A3B6913440A461A703B69013383
:1039E0003B613B69062BF0D93A4B1B78532B30D106
:1039F000384B5B797E2B2CD13C48FDF71DFC4FF4F6
:103A0000FA6307223349354804F0E6FB0346002BEE
:103A10005CD13748FDF710FC0023FB600AE02D4A1B
:103A2000FB6813441B7819462E48FDF705FCFB681C
:103A30000133FB60FB68062BF1DD2B48FDF7FCFB37
:103A4000254B01221A7007220021224805F090FA26
:103A50003CE02848FDF7F0FB4FF4FA6307221D49CC
:103A60001E4804F0B9FB0346002B2FD12248FDF776
:103A7000E3FB0023BB600AE0164ABB6813441B78D3
:103A800019461848FDF7D8FBBB680133BB60BB681B
:103A9000062BF1DD1448FDF7CFFB072200210D486E
:103AA00005F066FA0C4B00221A70FFF757FF0DE085
:103AB000094B00221A701148FDF7BEFB07220021B6
:103AC000044805F055FAFFF749FFFFE700BF183734
:103AD000BD4680BDDC020020D1050020F00300209F
:103AE000A8070108D8070108E0070108E407010852
:103AF0000C08010838080108640801089408010846
:103B000080B588B000AF072200219E4805F030FA4A
:103B100041F6583307229B499B4804F0E8FB0346D3
:103B2000002B40F016819948FDF786FB0023FB61CE
:103B30000AE0944AFB6913441B7819469448FDF740
:103B40007BFBFB690133FB61FB69062BF1DD9148CF
:103B5000FDF772FB0023FB718A4B1B78FA799A42BE
:103B600011D10023BB610BE0BB690133854AD15CF5
:103B7000844ABB6913440A461A70BB690133BB61AE
:103B8000BB69062BF0D97F4B1B78532B40F0AF80DD
:103B90007C4B5B797E2B40F0AA807A4B5B780A2BBA
:103BA00040F0E880774B9B780D2B40F0E380754B1D
:103BB000DB780C2B40F0DE807748FDF73DFB714B46
:103BC0001B79012B02D0022B2FD05DE0734B012219
:103BD0001A60734B01221A604FF4FA630722694995
:103BE000694804F0F9FA0346002B7CD16D48FDF7D3
:103BF00023FB00237B610AE0624A7B6913441B7844
:103C000019466348FDF718FB7B6901337B617B69CB
:103C1000062BF1DD5F48FDF70FFB07220021594815
:103C200005F0A6F95D4B1B68A7E05C4B02221A6009
:103C30005B4B02221A604FF4FA6307225149524843
:103C400004F0CAFA0346002B4FD15748FDF7F4FAA7
:103C500000233B610AE04B4A3B6913441B78194639
:103C60004B48FDF7E9FA3B6901333B613B69062BA1
:103C7000F1DD4848FDF7E0FA07220021414805F050
:103C800077F9464B1B6878E0444B01221A60444B9D
:103C900001221A604FF4FA6307223A493A4804F0C5
:103CA0009BFA0346002B65D13E48FDF7C5FA002379
:103CB000FB600AE0334AFB6813441B78194634481A
:103CC000FDF7BAFAFB680133FB60FB68062BF1DDF8
:103CD0003048FDF7B1FA072200212A4805F048F9DB
:103CE0002E4B1B6849E000BF44E000BF42E02F4874
:103CF000FDF7A2FA4FF4FA6307222249224804F0A2
:103D00006BFA0346002B36D12948FDF795FA0023BC
:103D1000BB600AE01B4ABB6813441B7819461C4869
:103D2000FDF78AFABB680133BB60BB68062BF1DD87
:103D30001848FDF781FA072200211E4805F018F9FE
:103D4000164B00221A60164B00221A60FFF7D8FEAD
:103D500011E01948FDF770FA07220021094805F023
:103D600007F90E4B00221A600D4B00221A60FFF774
:103D7000C7FE00E000BF094B1B6818462037BD4650
:103D800080BD00BFD4020020F0030020C808010855
:103D9000D8070108E0070108E407010868020020CD
:103DA00078020020F4080108140901083409010808
:103DB00058090108DC0200208009010880B586B09E
:103DC00000AFF860B9607A601849B868FCF7DAFFAC
:103DD000034619464FF07E50FDF788F803467B6195
:103DE00079697868FCF7C6FE034619467868FDF7DE
:103DF0007DF803461A46FB681A6079697868FCF713
:103E0000B9FE034619467869FDF770F803461A466D
:103E1000FB685A60FB684FF000029A60FB684FF045
:103E20000002DA6000BF1837BD4680BDF90FC940F7
:103E300090B583B000AF786039607B689A687B6822
:103E4000DA607B681B6839681846FCF79BFF0346FD
:103E50001C467B685A687B68DB6819461046FCF78D
:103E600091FF034619462046FCF784FE03461A4696
:103E70007B689A607B689B6818460C37BD4690BD8E
:103E8000F0B587B000AF786039604FF000037B6118
:103E90004FF000033B617B685C687B689B689C49D2
:103EA0001846FCF767FE034619462046FDF71EF844
:103EB0000346184609F02EFD03461846FCF7B4FAEF
:103EC0008FA3D3E90023FCF707FB02460B461046FD
:103ED0001946FCF7F9FD03467B617B681B688D4939
:103EE0001846FDF703F80346184609F0DDFE0346C1
:103EF0001846FCF799FA82A3D3E90023FCF7ECFA01
:103F000002460B4610461946FCF7DEFD03463B61B0
:103F10003B687A691A603B683A695A604FF000035F
:103F20007B614FF000033B617B68DC683869FCF71C
:103F30007BFA75A3D3E90023FCF7CEFA02460B46C1
:103F400010461946FCF7C0FD0346184609F05CFE12
:103F500005467869FCF768FA6BA3D3E90023FCF700
:103F6000BBFA02460B4610461946FCF7ADFD034668
:103F7000184609F013FE02467B681B691946104675
:103F8000FCF700FF03461E467869FCF74DFA5EA376
:103F9000D3E90023FCF7A0FA02460B461046194667
:103FA000FCF792FD0346184609F0C0FD02467B6807
:103FB0005B6919461046FCF7E5FE03461946304694
:103FC000FCF7D8FD034619462846FCF7DBFE0346FE
:103FD00019462046FCF7CEFD0346FB607869FCF7E6
:103FE00023FA49A3D3E90023FCF776FA02460B46ED
:103FF00010461946FCF768FD0346184609F096FD81
:1040000002467B681B6919461046FCF7BBFE034657
:104010001C467869FCF708FA3BA3D3E90023FCF7B8
:104020005BFA02460B4610461946FCF74DFD034667
:10403000184609F0B3FD02467B685B6919461046D5
:10404000FCF7A0FE034619462046FCF791FD034607
:10405000BB607869FCF7E8F92BA3D3E90023FCF7F0
:104060003BFA02460B4614461D46F868FCF7DCF99D
:1040700002460B4620462946FCF778F802460B46D6
:10408000104619461EA3D3E90023FCF725FA024681
:104090000B4610461946FCF717FD03467B6138694D
:1040A000FCF7C2F918A3D3E90023FCF715FA02467E
:1040B0000B4614461D46B868FCF7B6F902460B4697
:1040C00020462946FCF752F802460B461046194690
:1040D0000BA3D3E90023FCF7FFF902460B46104679
:1040E0001946FCF7F1FC03463B613B687A699A602C
:1040F0003B683A69DA6000BF1C37BD46F0BD00BFBF
:10410000B0CB631ADCA54C4011E226A246DF913FFA
:10411000BD378635C3F51C41F0B589B000AF786076
:1041200039603B685B68FB613B681B68BB617B680F
:104130005C687B689B6856491846FCF71BFD034684
:1041400019462046FCF7D2FE0346184609F0E2FB6A
:1041500078617B681B684F491846FCF7C7FE034629
:10416000184609F0A1FD38617B68DC68F86909F040
:104170004BFD0546B86909F011FD02467B681B69D5
:1041800019461046FCF7FEFD03461E46B86909F0C5
:10419000CDFC02467B685B6919461046FCF7F2FDD0
:1041A000034619463046FCF7E5FC03461946284607
:1041B000FCF7E8FD034619462046FCF7DBFC034606
:1041C000FB60B86909F0B2FC02467B681B691946BE
:1041D0001046FCF7D7FD03461C46B86909F0DEFC23
:1041E00002467B685B6919461046FCF7CBFD034627
:1041F00019462046FCF7BCFC0346BB60264978699B
:10420000FCF7C0FD03461C46F968B869FCF7B2FC30
:10421000034622491846FCF7B5FD034619462046D9
:10422000FCF7A8FC0346BB611B493869FCF7AAFDF3
:1042300003461C46B968F869FCF79CFC034617491D
:104240001846FCF79FFD034619462046FCF792FCF2
:104250000346FB613B68FA695A603B68BA691A60B9
:104260003B681B681846FCF7DFF802460B460C4813
:10427000FCF7E2FF3B685B681846FCF7D5F802469E
:104280000B460848FCF7D8FF00BF2437BD46F0BDF9
:10429000BD378635C3F51C41CDCC4C3D3333733F20
:1042A000AC090108D40901082DE9B043A2B002AF5E
:1042B00078603960BE4BFB67BE4BBB67BE4B7B670C
:1042C000BB6FFB64BB6F3B657B6F3B647B6F7B6449
:1042D0007B6FBB64FB6FBB63FB6FFB634FF0000343
:1042E0003B674FF00003FB664FF00003BB664FF0E7
:1042F00000037B664FF000033B664FF00003FB6555
:104300007B681B683B677B685B68FB667B689B68B8
:10431000BB667B68DB687B667B681B693B667B688A
:104320005B69FB6507F1400307F14C0207F13801B7
:1043300007F10C00FDF7AEFA07F10C009F4B00935C
:10434000FB6D3A6E796EFDF7DDFA07F10C00BB6E7E
:10435000FA6E396FFDF787FC3A693B685A60FA6874
:104360003B681A60964B9B691846FCF75DF804465B
:104370000D463B685B681846FCF756F802460B464C
:104380001046194609F0F6F902460B462046294622
:10439000FCF7A2F802460B4690469946884BDB692B
:1043A0001846FCF741F804460D463B681B68184662
:1043B000FCF73AF802460B461046194609F064FA33
:1043C00002460B4620462946FCF786F802460B4675
:1043D00014461D463B685B681846FCF725F8024604
:1043E0000B461046194609F04FFA02460B46204686
:1043F0002946FCF771F802460B4640464946FBF752
:10440000B3FE02460B46904699466D4B1B6A184612
:10441000FCF70AF804460D463B681B681846FCF793
:1044200003F802460B461046194609F0A3F9024666
:104430000B4620462946FCF74FF802460B46144629
:104440001D463B685B681846FBF7EEFF02460B46CD
:104450001046194609F018FA02460B46204629462E
:10446000FCF73AF802460B4640464946FBF77EFE0B
:1044700002460B4610461946FCF726FB0346BB6571
:104480004F4BDB691846FBF7CFFF04460D463B68F0
:104490001B681846FBF7C8FF02460B461046194634
:1044A00009F068F902460B4620462946FCF714F845
:1044B00002460B4690469946414B1B6A1846FBF74D
:1044C000B3FF04460D463B681B681846FBF7ACFF7C
:1044D00002460B461046194609F0D6F902460B462D
:1044E00020462946FBF7F8FF02460B464046494660
:1044F000FBF73CFE02460B4610461946FCF7E4FA71
:1045000003467B65786DFBF78FFF04460D46B86D5B
:10451000FBF78AFF02460B462046294609F096FB28
:1045200002460B4610461946FCF7CEFA02463B6897
:104530009A603B691846FBF777FF1BA3D3E900237A
:10454000FBF7CAFF02460B4610461946FCF7BCFAB9
:1045500002463B685A60FB681846FBF765FF12A3EA
:10456000D3E90023FBF7B8FF02460B461046194675
:10457000FCF7AAFA02463B681A603B689B6818463B
:10458000FBF752FF08A3D3E90023FBF7A5FF024680
:104590000B4610461946FCF797FA02463B689A60AC
:1045A0003B685B6818460DE0B0CB631ADCA54C4055
:1045B000CDCCCC3D6F12833A5839343C0BD7233CD9
:1045C00038040020FBF730FF02460B460D48FCF78D
:1045D00033FE3B681B681846FBF726FF02460B4676
:1045E0000948FCF729FE3B689B681846FBF71CFF4F
:1045F00002460B460548FCF71FFE00BF8037BD464C
:10460000BDE8B083FC0901081C0A01083C0A010846
:1046100084B080B500AF07F1080C8CE80F000A49A0
:1046200007F10800FFF72CFC084907F10800FFF725
:1046300073FD064907F10800FFF736FE00BFBD46CF
:10464000BDE8804004B07047B0040020440300205F
:10465000F0B599B008AF78637B6B604A934240F045
:10466000B8805F4B1B6801335D4A13605C4B1B686D
:10467000B3F57A7F0CD35B4B1B680133594A136047
:10468000594B1B680133584A1360554B00221A607E
:10469000554B1B683C2B40F09C80FDF78FF8524B2C
:1046A00000221A605148FCF7C7FD4C4802F066FE34
:1046B0004F4B1B684F4A53624D4B5B684D4A9362A8
:1046C0004B4B9B684B4AD362494B5B69494A136326
:1046D000474B9B69474A5363474C3B46474A4849C7
:1046E0001846FEF7E1FB25463C460FCC0FC50FCC24
:1046F0000FC594E80F0085E80F003F4E6D4606F1A8
:1047000010040FCC0FC594E80F0085E80F0096E861
:104710000F00FFF77DFF384BDB68364A9363364B5B
:104720001B69344AD363344B5B69324A1364324B9E
:104730009B69304A5364304BDB692E4A93642E4B9D
:104740001B6A2C4AD3642F4B1B682A4A13652D4BD6
:104750005B68284A53652B4B9B68264A936500F09B
:104760005FF84FF47A732D222749284803F034FD6F
:104770000346002B16D12648FCF75EFD0023FB63A1
:104780000AE0214AFB6B13441B7819462148FCF7C9
:1047900053FDFB6B0133FB63FB6B2D2BF1DD1E48DF
:1047A000FCF74AFD2E220021174804F0E1FB5C22B1
:1047B0000021104804F0DCFB4FF47A7001F01AF885
:1047C000074B00221A60074B00221A60134B01228C
:1047D0001A6000BF4437BD46F0BD00BF2806002068
:1047E0006C02002070020020740200205C0A0108A4
:1047F000A00200206405002038040020900700205B
:104800007006002044030020F8050020F00300207B
:104810006C0A0108840A01088C0A010800000020C3
:1048200080B584B000AF0023FB602CE0374AFB6802
:1048300052F823301846FBF7F7FD02460B46344882
:10484000FCF7FAFC314AFB6852F82330314918462C
:10485000FCF798FA03461846FBF7E6FD02460B46BE
:104860001046194608F0C8FF02460B461046194686
:10487000FCF7E2F8034619B2274AFB6822F8131046
:10488000FB680133FB60FB68162BCFDD2348FCF788
:10489000D3FC2348FCF7D0FC0023BB600AE01E4A8F
:1048A000BB6832F9133019461E48FCF7C5FCBB68DB
:1048B0000133BB60BB68162BF1DD1848FCF7BCFC6C
:1048C00000237B6017E0144A7B6832F913301B1217
:1048D0001AB27B685B00D1B2134AD1540E4A7B688E
:1048E00032F913207B685B000133D1B20E4AD154F8
:1048F0007B6801337B607B682D2BE4DD0748FCF788
:104900009BFC00BF1037BD4680BD00BF6405002082
:10491000900A01080000C8425C0700208C0A0108C8
:10492000980A0108A40A0108F8050020F0B59BB018
:104930000CAF00F0FDFE00F025F900F045FB00F0A3
:10494000EFFA00F017FB00F063F900F01DFA00F039
:1049500081FA00F0C9F900F091F97648FCF76CFC97
:104960007548FCF769FC01E0FEF7F8FF734B1B7814
:10497000002BF9D07248FCF75FFC01E0FFF7C0F8AC
:10498000704B1B68002BF9D06F4B1B683B2BFBDC7B
:104990006E4B1B68012BF7D16A4B1B68002B01D1B2
:1049A000FFF7AEF8674B1B68012B03D0654B1B6804
:1049B000022BE9D16648FEF711F84FF47A7000F047
:1049C00019FF644C3B46644A61491846FEF76CFA8D
:1049D00025463C460FCC0FC50FCC0FC594E80F0001
:1049E00085E80F004FF47A7000F004FF594E6D46D1
:1049F00006F110040FCC0FC594E80F0085E80F00F6
:104A000096E80F00FFF704FE5C220021534804F0F3
:104A1000AFFA504BDB68514A13604E4B1B694F4A4B
:104A200053604C4B5B694D4A93604A4B9B694B4AC0
:104A3000D360484BDB69494A1361464B1B6A474ABE
:104A40005361474B1B68454A9361454B5B68434A3A
:104A5000D361434B9B68414A1362424B1A68134629
:104A6000DB001344404A13445C223C49184604F0DE
:104A700071FA3E4B1B6801333C4A1360394B1B688B
:104A80000133384A1360394B1B68092B31DD2D4B3C
:104A90001B68012B22D1FFF7C3FE4FF47A732E223D
:104AA0003349344803F098FB0346002B16D13248B3
:104AB000FCF7C2FB00237B630AE02D4A7B6B1344A7
:104AC0001B7819462D48FCF7B7FB7B6B01337B63E2
:104AD0007B6B2D2BF1D92A48FCF7AEFB2E2200214F
:104AE000234804F045FA214B00221A601D4B002296
:104AF0001A60144B1B68022B17D1144B00221A604A
:104B0000144E174A09AB07CA83E80700124B0893F3
:104B10006D4606F110040FCC0FC594E80F0085E830
:104B20000F0096E80F00FCF7C3FB4FF47A7000F01B
:104B300061FE29E7A80A0108D80A0108D10500206A
:104B4000100B0108780200208402002000000020E1
:104B50007006002038040020900700206405002023
:104B60004403002080020020C00400207C020020BA
:104B7000F8050020F00300206C0A0108840A0108EF
:104B80008C0A010880B590B000AF07F11803282205
:104B90000021184604F0ECF93B1D00221A605A600F
:104BA0009A60DA601A610123BB614FF48033FB61C4
:104BB00000233B620123BB6202237B634FF48033FB
:104BC000BB634FF4E013FB6307F11803184601F0D1
:104BD00091F90346002B01D000F056FA0F237B60B9
:104BE0000223BB600023FB604FF480633B61002322
:104BF0007B613B1D0221184601F0FCFB0346002BA4
:104C000001D000F041FA00BF4037BD4680BD000032
:104C100080B500AF174B184A1A60164B4FF48272DA
:104C20005A60144B00229A60124B0022DA60114B3A
:104C300000221A610F4B00225A610E4B4FF4007292
:104C40009A610C4B2022DA610A4B00221A62094B4E
:104C500000225A62074B00229A62064B0A22DA624D
:104C6000044801F055FD0346002B01D000F00CFA7A
:104C700000BF80BDD40600200030014080B500AFE9
:104C8000174B184A1A60164B4FF482725A60144B35
:104C900000229A60124B0022DA60114B00221A6146
:104CA0000F4B00225A610E4B4FF400729A610C4B6D
:104CB0000022DA610A4B00221A62094B00225A6272
:104CC000074B00229A62064B0A22DA62044801F07E
:104CD0001FFD0346002B01D000F0D6F900BF80BDB8
:104CE000500300200038004080B586B000AF07F1C7
:104CF000080300221A605A609A60DA603B4600227C
:104D00001A605A601E4B1F4A1A601D4B47225A6098
:104D10001B4B00229A601A4B40F2E732DA60184BC4
:104D200000221A61164B00225A61154B00229A612B
:104D3000134802F082FA0346002B01D000F0A4F9D8
:104D40004FF48053BB6007F1080319460C4802F08A
:104D5000E7FD0346002B01D000F096F900233B60ED
:104D600000237B603B461946054803F075F903466E
:104D7000002B01D000F088F900BF1837BD4680BD78
:104D800028060020002C014080B58AB000AF07F152
:104D9000200300221A605A603B1D00221A605A60EC
:104DA0009A60DA601A615A619A61284B284A1A603F
:104DB000264B40F2CF725A60244B00229A60234B5C
:104DC00048F69F42DA60214B00221A611F4B0022F5
:104DD0009A611E4802F000FB0346002B01D000F050
:104DE00053F900233B6200237B6207F1200319463D
:104DF000164803F031F90346002B01D000F044F9C6
:104E000060237B600023BB600023FB6000237B6189
:104E10003B1D002219460D4802F0C0FC0346002B42
:104E200001D000F031F93B1D04221946074802F079
:104E3000B5FC0346002B01D000F026F9034800F032
:104E400039FA00BF2837BD4680BD00BF6804002086
:104E50000004004080B58AB000AF07F120030022B3
:104E60001A605A603B1D00221A605A609A60DA602C
:104E70001A615A619A61284B284A1A60264B40F2FF
:104E8000CF725A60244B00229A60234B48F69F420F
:104E9000DA60214B00221A611F4B00229A611E48E2
:104EA00002F09AFA0346002B01D000F0EDF800233F
:104EB0003B6200237B6207F120031946164803F08A
:104EC000CBF80346002B01D000F0DEF860237B60B6
:104ED0000023BB600023FB6000237B613B1D082295
:104EE00019460D4802F05AFC0346002B01D000F091
:104EF000CBF83B1D0C221946074802F04FFC034635
:104F0000002B01D000F0C0F8034800F0D3F900BF37
:104F10002837BD4680BD00BFA80300200008004020
:104F200080B500AF114B124A1A60104B4FF4E132BA
:104F30005A600E4B00229A600C4B0022DA600B4B39
:104F400000221A61094B0C225A61084B00229A6117
:104F5000064B0022DA61054803F0EEF80346002B09
:104F600001D000F091F800BF80BD00BF1C050020FB
:104F70000038014080B500AF114B124A1A60104B47
:104F80004FF4E1325A600E4B00229A600C4B002223
:104F9000DA600B4B00221A61094B0C225A61084B54
:104FA00000229A61064B0022DA61054803F0C4F83A
:104FB0000346002B01D000F067F800BF80BD00BFA2
:104FC000F00300200048004080B588B000AF07F132
:104FD000100300221A605A609A60DA60274B9B69BE
:104FE000264A43F020039361244B9B6903F020037E
:104FF000FB60FB68214B9B69204A43F004039361EB
:105000001E4B9B6903F00403BB60BB681B4B9B6991
:105010001A4A43F008039361184B9B6903F0080395
:105020007B607B6800221021154800F04BFF0022B6
:1050300041F20801134800F045FF10233B610123B2
:105040007B610023BB610223FB6107F1100319465A
:105050000B4800F0B3FD41F208033B6101237B6183
:105060000023BB610223FB6107F1100319460548C9
:1050700000F0A4FD00BF2037BD4680BD00100240F7
:1050800000080140000C014080B400AF72B600BFC0
:10509000FEE7000080B485B000AF154B9B69144A51
:1050A00043F001039361124B9B6903F00103BB6062
:1050B000BB680F4BDB690E4A43F08053D3610C4B46
:1050C000DB6903F080537B607B680A4B5B68FB60A5
:1050D000FB6823F0E063FB60FB6843F00073FB6058
:1050E000044AFB68536000BF1437BD4680BC70475C
:1050F000001002400000014080B58AB000AF786027
:1051000007F1180300221A605A609A60DA607B681F
:105110001B68374A934230D1364B9B69354A43F47A
:1051200080539361334B9B6903F480537B617B69AC
:10513000304B9B692F4A43F0040393612D4B9B69CD
:1051400003F004033B613B69A023BB610223FB61C5
:1051500003237B6207F118031946274800F02EFD50
:105160004023BB610023FB6100233B6207F118036E
:105170001946214800F022FD36E07B681B681F4A73
:10518000934231D11B4BDB691A4A43F48043D3610C
:10519000184BDB6903F48043FB60FB68154B9B698C
:1051A000144A43F008039361124B9B6903F0080310
:1051B000BB60BB684FF42043BB610223FB61032348
:1051C0007B6207F1180319460D4800F0F7FC4FF415
:1051D0008043BB610023FB6100233B6207F118039E
:1051E0001946074800F0EAFC00BF2837BD4680BDDD
:1051F000003001400010024000080140003800402B
:10520000000C014080B584B000AF78607B681B68FB
:105210000D4A934213D10D4B9B690C4A43F4006332
:1052200093610A4B9B6903F40063FB60FB680022F7
:105230000021192000F0D9FB192000F0F2FB00BF7B
:105240001037BD4680BD00BF002C01400010024059
:1052500080B485B000AF78607B681B68124A9342C7
:105260000CD1124BDB69114A43F00203D3610F4B9F
:10527000DB6903F00203FB60FB6810E07B681B68DE
:105280000B4A93420BD1094BDB69084A43F00403F4
:10529000D361064BDB6903F00403BB60BB6800BF4E
:1052A0001437BD4680BC7047000400400010024027
:1052B0000008004080B58AB000AF786007F11403A1
:1052C00000221A605A609A60DA607B681B68284A7C
:1052D00093422AD1274B9B69264A43F008039361E6
:1052E000244B9B6903F008033B613B6930237B61DE
:1052F0000223BB6102233B6207F1140319461E48D7
:1053000000F05CFC1D4B5B687B627B6A23F44063AE
:105310007B627B6A43F0E0637B627B6A43F40063F9
:105320007B62164A7B6A53601DE07B681B68144AE7
:10533000934218D10F4B9B690E4A43F008039361C7
:105340000C4B9B6903F00803FB60FB684FF4407350
:105350007B610223BB6102233B6207F11403194600
:10536000054800F02BFC00BF2837BD4680BD00BFBC
:105370000004004000100240000C01400000014009
:105380000008004080B58CB000AF786007F11C03C6
:1053900000221A605A609A60DA607B681B68464A8D
:1053A000934246D1454B9B69444A43F48043936101
:1053B000424B9B6903F48043BB61BB693F4B9B69D4
:1053C0003E4A43F0080393613C4B9B6903F008039A
:1053D0007B617B694023FB6102233B620323BB6249
:1053E00007F11C031946364800F0E8FB8023FB61F7
:1053F00000233B6200237B6207F11C0319463048FF
:1054000000F0DCFB2F4B5B68FB62FB6A43F0E06360
:10541000FB62FB6A43F00403FB622A4AFB6A5360A7
:1054200000220021252000F0E0FA252000F0F9FA02
:105430003EE07B681B68244A934239D11F4BDB69ED
:105440001E4A43F48023D3611C4BDB6903F48023A1
:105450003B613B69194B9B69184A43F00803936110
:10546000164B9B6903F00803FB60FB684FF48063F5
:10547000FB6102233B620323BB6207F11C03194655
:105480000F4800F09BFB4FF40063FB6100233B627D
:1054900000237B6207F11C031946094800F08EFBCC
:1054A00000220021272000F0A0FA272000F0B9FAFE
:1054B00000BF3037BD4680BD0038014000100240BB
:1054C000000C0140000001400048004080B400AFE3
:1054D000FEE780B400AFFEE780B400AFFEE780B423
:1054E00000AFFEE780B400AFFEE780B400AF00BFBE
:1054F000BD4680BC704780B400AF00BFBD4680BCD5
:10550000704780B400AF00BFBD4680BC704780B517
:1055100000AF00F053F900BF80BD000080B500AFC0
:10552000024802F04BF800BF80BD00BF28060020F3
:1055300080B500AF024802F071FF00BF80BD00BF20
:105540001C05002080B500AF024802F067FF00BFD5
:1055500080BD00BFF003002080B400AF01231846D7
:10556000BD4680BC704780B582B000AF78603960BE
:1055700003F0ACFC034616221A604FF0FF331846C6
:105580000837BD4680BD80B582B000AF78604FF06F
:10559000FF317868FFF7E7FFFEE780B586B000AF20
:1055A000F860B9607A6000237B610AE0AFF30080A5
:1055B0000146BB685A1CBA60CAB21A707B690133D3
:1055C0007B617A697B689A42F0DB7B681846183702
:1055D000BD4680BD80B586B000AFF860B9607A6026
:1055E00000237B6109E0BB685A1CBA601B7818462F
:1055F000AFF300807B6901337B617A697B689A42F3
:10560000F1DB7B6818461837BD4680BD80B483B097
:1056100000AF78604FF0FF3318460C37BD4680BCB2
:10562000704780B483B000AF786039603B684FF456
:1056300000525A60002318460C37BD4680BC7047A4
:1056400080B483B000AF7860012318460C37BD46A4
:1056500080BC704780B485B000AFF860B9607A60F4
:10566000002318461437BD4680BC704780B586B00D
:1056700000AF7860144A154BD31A7B617B693B619C
:10568000134B1B68002B02D1114B124A1A60104BAE
:105690001A687B6813443A699A4207D203F016FCF1
:1056A00003460C221A604FF0FF3309E0084B1B68D9
:1056B000FB60074B1A687B681344054A1360FB685C
:1056C00018461837BD4680BD005000200004000079
:1056D00088020020C807002080B400AF00BFBD468C
:1056E00080BC7047FFF7F8FF0B480C490C4A0023B9
:1056F00002E0D458C4500433C4188C42F9D3094A88
:10570000094C002301E013600432A242FBD303F0F2
:10571000F5FBFFF70BF9704700000020E8010020BF
:1057200060160108E8010020C4070020FEE7000021
:1057300080B500AF084B1B68074A43F010031360A5
:10574000032000F047F90F2000F008F8FFF7A2FC53
:105750000023184680BD00BF0020024080B582B003
:1057600000AF7860124B1A68124B1B7819464FF441
:105770007A73B3FBF1F3B2FBF3F3184600F05FF971
:105780000346002B01D001230EE07B680F2B0AD8C3
:10579000002279684FF0FF3000F027F9064A7B6855
:1057A0001360002300E0012318460837BD4680BD82
:1057B000040000200C0000200800002080B400AF8E
:1057C000054B1B781A46054B1B681344034A1360AC
:1057D00000BFBD4680BC70470C000020B007002011
:1057E00080B400AF024B1B681846BD4680BC7047B2
:1057F000B007002080B584B000AF7860FFF7F0FFFD
:10580000B8607B68FB60FB68B3F1FF3F05D00A4BD3
:105810001B781A46FB681344FB6000BFFFF7E0FFEC
:105820000246BB68D31AFA689A42F7D800BF00BF95
:105830001037BD4680BD00BF0C00002080B485B08D
:1058400000AF78607B6803F00703FB600C4BDB68FC
:10585000BB60BA684FF6FF031340BB60FB681A02D7
:10586000BB68134343F0BF6343F40033BB60044A97
:10587000BB68D36000BF1437BD4680BC704700BF13
:1058800000ED00E080B400AF044BDB681B0A03F0BE
:1058900007031846BD4680BC704700BF00ED00E01E
:1058A00080B483B000AF0346FB7197F90730002B3B
:1058B0000BDBFB7903F01F02064997F907305B0900
:1058C000012000FA02F241F8232000BF0C37BD4648
:1058D00080BC704700E100E080B483B000AF0346B5
:1058E0003960FB7197F90730002B0ADB3B68DAB2AD
:1058F0000C4997F907301201D2B20B4483F8002308
:105900000AE03B68DAB20849FB7903F00F03043B75
:105910001201D2B20B441A7600BF0C37BD4680BCD0
:10592000704700BF00E100E000ED00E080B489B006
:1059300000AFF860B9607A60FB6803F00703FB61B1
:10594000FB69C3F10703042B28BF0423BB61FB6978
:105950000433062B02D9FB69033B00E000237B6183
:105960004FF0FF32BB6902FA03F3DA43BB681A4017
:105970007B699A404FF0FF317B6901FA03F3D94309
:105980007B680B40134318462437BD4680BC7047E4
:1059900080B582B000AF78607B68013BB3F1807F57
:1059A00001D301230FE00A4A7B68013B53600F21BA
:1059B0004FF0FF30FFF790FF054B00229A60044B39
:1059C00007221A60002318460837BD4680BD00BF75
:1059D00010E000E080B582B000AF78607868FFF733
:1059E0002DFF00BF0837BD4680BD80B586B000AF33
:1059F0000346B9607A60FB7300237B61FFF742FFC7
:105A000078617A68B9687869FFF790FF024697F97C
:105A10000F3011461846FFF75FFF00BF1837BD462D
:105A200080BD80B582B000AF0346FB7197F90730A7
:105A30001846FFF735FF00BF0837BD4680BD80B56B
:105A400082B000AF78607868FFF7A2FF034618467F
:105A50000837BD4680BD80B485B000AF78600023B4
:105A6000FB737B6893F82130DBB2022B08D07B6894
:105A700004229A637B68002283F82020012320E01F
:105A80007B681B681A687B681B6822F00E021A602C
:105A90007B681B681A687B681B6822F001021A6029
:105AA0007B681A6C7B68DB6B012101FA02F25A6099
:105AB0007B68012283F821207B68002283F8202064
:105AC000FB7B18461437BD4680BC704780B584B058
:105AD00000AF78600023FB737B6893F82130DBB262
